:020000040800F2
:10000000006300202D0300084F3A0008FD2E000871
:100010004D3A0008110600088D4C00080000000051
:100020000000000000000000000000006D02000859
:100030000D07000800000000C90200085542000832
:100040004703000847030008470300084703000868
:1000500047030008470300081707000825070008A2
:100060002B07000847030008470300084703000860
:100070002D0600084703000839060008470300085A
:100080004703000845060008470300084703000827
:100090001506000847030008470300084703000847
:1000A0004703000847030008470300084703000808
:1000B00047030008470300084703000847030008F8
:1000C00047030008470300084703000847030008E8
:1000D00047030008D14A0008470300088D4B000879
:1000E0001D070008470300084703000847030008EE
:1000F0002943000847030008470300084703000896
:1001000047030008470300084703000847030008A7
:100110004703000847030008470300084703000897
:1001200047030008510600085D0600084703000861
:100130004703000847030008470300084703000877
:10014000210600084703000847030008470300088A
:10015000470300084703000847030008094C00084C
:100160004703000847030008470300084703000847
:100170004703000847030008470300080000000089
:100180004703000847030008194600089546000881
:100190004703000847030008470300084703000817
:1001A00000000000000000004703000800F002F813
:1001B00000F04CF80AA090E8000C82448344AAF1B5
:1001C0000107DA4501D100F041F8AFF2090EBAE8B3
:1001D0000F0013F0010F18BFFB1A43F0010318477B
:1001E00004870000248700000A4410F8014B14F033
:1001F0000F0508BF10F8015B240908BF10F8014B78
:100200006D1E05D010F8013B6D1E01F8013BF9D1C0
:10021000641E03D0641E01F8015BFBD19142E4D35C
:10022000704700000023002400250026103A28BF54
:1002300078C1FBD8520728BF30C148BF0B60704758
:100240001FB508F04AFA1FBD10B510BD00F074F9D3
:100250001146FFF7F5FF06F073F900F092F903B4C9
:10026000FFF7F2FF03BC00F095F900002C4B196872
:100270000868B0E8F04F80F30988BFF36F8F4FF044
:10028000000080F3118870470000000008480068F3
:10029000006880F308884FF0000080F3148862B68D
:1002A00061B6BFF34F8FBFF36F8F00DF00BF00BF9A
:1002B00008ED00E0DFF80C00016841F47001016016
:1002C000704700BF88ED00E0EFF30980BFF36F8F48
:1002D000134B1A681EF0100F08BF20ED108A20E99A
:1002E000F04F106009B44FF0500080F31188BFF355
:1002F0004F8FBFF36F8F07F0A7F94FF0000080F327
:10030000118809BC19680868B0E8F04F1EF0100F9A
:1003100008BFB0EC108A80F30988BFF36F8F704775
:100320004C010020EFF3058070470000094880472A
:1003300009480047FEE7FEE7FEE7FEE7FEE7FEE7C7
:10034000FEE7FEE7FEE7FEE704480549054A064BDF
:100350007047000011430008AD010008005D002057
:1003600000630020005F0020005F002053EA020CC1
:1003700000F069802DE9F04B4FF00006002B1FBF05
:10038000B3FA83F503FA05F424FA05F65E4012BFCA
:100390001643B2FA82F502FA05F4C5F120051EBF34
:1003A00022FA05FC44EA0C04203556EA044C4FEAD4
:1003B000144418BF641C4FF000084FF0000990422D
:1003C00071EB030C39D3002919BFB1FA81F701FA97
:1003D00007F6B0FA80F700FA07F6C7F120071EBF4C
:1003E00020FA07FC46EA0C062037B6FBF4FCA7EB24
:1003F0000507103F07F01F0BCBF120060CFA0BFB93
:100400002CFA06F644BFB3460026202FA4BF5E4652
:100410004FF0000B5BEA060C08BF4FF0010B19EB25
:100420000B09ABFB027C48EB0608C01B06FB02CCA9
:100430000BFB03CC71EB0C01C1E70B4602464146B6
:100440004846BDE8F08B13B54FF000004FF00001B7
:10045000AFF30080BDE81C40704710B5203AC0F0F3
:100460000B80B1E81850203AA0E81850B1E81850B5
:10047000A0E81850BFF4F5AF5FEA027C24BFB1E8F2
:100480001850A0E8185044BF18C918C0BDE8104063
:100490005FEA827C24BF51F8043B40F8043B08BF6C
:1004A0007047D20728BF31F8023B48BF11F8012B33
:1004B00028BF20F8023B48BF00F8012B70474FF0DF
:1004C000000200B5134694469646203922BFA0E8A4
:1004D0000C50A0E80C50B1F12001BFF4F7AF0907B0
:1004E00028BFA0E80C5048BF0CC05DF804EB8900A1
:1004F00028BF40F8042B08BF704748BF20F8022BE4
:1005000011F0804F18BF00F8012B704770477047FB
:10051000704710B500F008F8006810BD10B504462B
:1005200000F002F8046010BD00487047A05C002095
:1005300000487047A05C00207546FFF7F9FFAE4603
:1005400005006946534620F00700854618B020B5DF
:10055000FFF7FAFEBDE820404FF000064FF000071D
:100560004FF000084FF0000B21F00701AC46ACE85B
:10057000C009ACE8C009ACE8C009ACE8C0098D46C8
:10058000704710B50446AFF300802046BDE8104028
:10059000FFF765BE01491820ABBEFEE7260002004A
:1005A00070470000054C00BF05F0AEF8A06806F0EB
:1005B000B7FF012006F0E2F9F6E700003C01002059
:1005C00070B58AB0282210496846FFF746FF0A2016
:1005D00000246D4600EBD0760DE000BF35F8340006
:1005E000C82180B205F0C0F805EBC4004068800067
:1005F00000F0ACFE641CB4EB660FEFDB0349002097
:1006000008600AB070BD000054870008341800402C
:10061000FEE70000014800F09AB90000080400203D
:10062000014800F094B9000030040020014800F0B7
:100630001BBD0000F40B0020014800F015BD0000B8
:10064000D40A0020014800F00FBD0000340B002048
:10065000014800F009BD0000540C0020014800F0E2
:1006600003BD0000940B002001681823CAB2103AA1
:10067000B2FBF3F2054B6FF30901032A9B5CC365E0
:1006800000D9091D81650846704700000C870008E5
:1006900010B5014600208B698A6A4FF0C07453B1CF
:1006A000B3F5005F15D072B1012A0CD0022A0AD02E
:1006B000032A09D104E01AB1012A06D0022A03D183
:1006C000C96AC90100D5012010BDC96AA142FAD08A
:1006D00010BD002AF7D0012AF2D0022AF3D0032A53
:1006E000F3D010BD30B50468256825F48025256059
:1006F000046863608368402B036803D099600068D6
:10070000C26030BD9A600068C16030BD7047C000F3
:10071000401EFDD27047012000F02CBE4FF48060D7
:1007200000F028BE022000F025BE042000F022BE0A
:10073000FEE790F82020012A07D0022A05D0416A5E
:1007400041F48021416201207047006842690A43F8
:10075000426100207047000010B590F82020012A67
:1007600007D0022A05D0416A41F48021416201206C
:1007700010BD3B48D0F8002242F00102C0F8002230
:10078000D0F8002222F47C52C0F80022D0F80022D7
:100790004B6A42EA0322C0F800220A7D02F01F03DE
:1007A00001229A40D0F81C329343C0F81C32CB6926
:1007B000B3B9D0F80C329343C0F80C328C894B6833
:1007C00064F31F434C6900EBC404C4F840320C8945
:1007D0000B6864F31F434C6900EBC404C4F8443253
:1007E000CB69012B16D1D0F80C321343C0F80C3270
:1007F0000C884B6864F31F434C6900EBC404C4F8D5
:1008000040320C89CB6864F31F434C6900EBC4048D
:10081000C4F844328B69002BD0F804320ED0134355
:10082000C0F804320B69002BD0F8143208D01343FF
:10083000C0F81432096A012904D008E09343EFE7B5
:100840009343F5E7D0F81C121143C0F81C12D0F8FE
:10085000001221F00101C0F80012002010BD0000BC
:1008600000640040704730B590F82040012C05D05E
:10087000022C03D0416A41F480215DE00468002924
:1008800055D02469A40754D04FF4D874056804EBFC
:1008900001142D5915F00405956005682D594ED0A9
:1008A000ED08556005682C5904F00204D4604FF43B
:1008B000DA74056804EB01142D5905F00F05156174
:1008C00005682D59C5F30725956105682C59240C39
:1008D00054614FF4DC72046802EB0112A4581C70DE
:1008E0000468A458240A5C700468A458240C9C7002
:1008F0000468A258120EDA704FF4DE72046802EB3C
:100900000112A4581C710468A458240A5C7104687C
:10091000A458240C9C710468A258120EDA71006865
:1009200081B1016941F020010161002030BDE4681E
:10093000A8E7416A41F400114162012030BD6D0D0C
:100940001560AFE7C16841F02001C160EDE72DE916
:10095000F05F0546006800244669D0F80490876877
:10096000D0F80CB0D0F810A0D0F81880F10748D01B
:10097000F90714D001218160B80703D5284600F09B
:1009800012FB0CE0780702D54FF4006407E038074B
:1009900002D54FF4805402E0284600F003FBF8052E
:1009A00016D529684FF480708860B80503D52846AD
:1009B00000F0FBFA0CE0780502D544F4005407E09F
:1009C000380502D544F4804402E0284600F0ECFAF1
:1009D000F80316D529684FF480308860B80303D532
:1009E000284600F0E4FA0CE0780302D544F4004411
:1009F00007E0380302D544F4803402E0284600F0D2
:100A0000D5FA300707D55FEACB6004D529681020F6
:100A100044F40074C86070074FF0080707D55FEA18
:100A20000B7004D52868C760284600F099F9B00714
:100A300006D52868C068800702D0284600F092F9E1
:100A4000700607D55FEACA6004D52968102044F40F
:100A500080640861B00607D55FEA0A7004D528688B
:100A60000761284600F06EFAF00606D5286800698E
:100A7000800702D0284600F066FAB00308D55FEA86
:100A8000C96005D5296810204860284600F05CFA46
:100A9000F00307D55FEA097004D528684760284647
:100AA00000F086FA300446D55FEA497040D5F0057B
:100AB00004D55FEAC87001D044F00104B00504D544
:100AC0005FEA887001D544F00204700504D55FEA3E
:100AD000487001D544F00404300529D518F0700F92
:100AE00026D008F07000402815D006DC102809D068
:100AF00020280AD0302816D10AE050280ED06028CD
:100B000011D10EE044F008040DE044F010040AE0B6
:100B100044F0200407E044F0400404E044F0800482
:100B200001E044F480742868816921F070018161DA
:100B3000296804204860002C05D0686A2043686258
:100B40002846FFF78FFEBDE8F09F70B5040003D084
:100B500094F8200010B104E0012070BD204600F0A0
:100B600081F82068016841F00101016000F02EFD6C
:100B70000546052604E000F029FD401B0A2811D88F
:100B800020684068C007F6D02068016821F00201A3
:100B9000016000F01BFD05460BE000F017FD401B57
:100BA0000A2806D9606A40F40030606284F8206048
:100BB000D2E7206840688007EFD4207E01282068B3
:100BC00001683DD021F080010160607E012820682D
:100BD000016838D021F040010160A07E0128206822
:100BE000016833D021F020010160E07E01282068F7
:100BF00001682ED041F010010160207F012820689B
:100C0000016829D021F008010160607F0128206877
:100C1000016824D021F004010160D4E902010843F5
:100C2000D4E90412114308436168491E084321684E
:100C3000C86100206062012084F82000002070BD9F
:100C400041F08001C0E741F04001C5E741F02001DB
:100C5000CAE721F01001CFE741F00801D4E741F0E5
:100C60000401D9E7F0B587B0044614216846FFF7C0
:100C700026FC364B3648DFF8D0E01968D4F800C0BF
:100C8000334A03250226092710300024491CF44565
:100C900022D11960012907D1016841F0007101607A
:100CA000006800F000700590106840F008001060C7
:100CB0001068CDE9005600F00800CDE904706946DF
:100CC0002448CDE9024500F061FB002205211420F3
:100CD00000F01AFD142033E0DFF87CE0F44531D158
:100CE000D0F800C04CF0806CC0F800C0D0F800C054
:100CF00001290CF0806CCDF814C0196007D101688F
:100D000041F000710160006800F00070059010680B
:100D100040F002001060106802AB00F00200059085
:100D20004FF44050CDE9000683E8B00069460B4817
:100D300000F02CFB00220521402000F0E5FC4020C3
:100D400000F0D4FC07B0F0BD0064004004000020B7
:100D500030380240000C02400068004000040240AD
:100D6000704700002DE9F04F06462DED048B8DB045
:100D700003AB05AA0021FFF776FD6B484FF4805ABC
:100D800040F2012740F2022940F20528CAF1000B87
:100D90009FED668AF3EE038A9FED659A654D864264
:100DA0005AD10598B8420AD0484508D0A0F500713C
:100DB000033904D0B0F5017F01D040454CD1401E2D
:100DC000C0B22870BDF80C104ABA00EB80015A4836
:100DD00020F831206A683AB100EBC10330F83140A5
:100DE000DC821C83521E6A60BDF80E2000EBC10439
:100DF00052BA2282BDF8102052BA62829DF81220A7
:100E0000227530F83120B4F91630D21A524502DD7D
:100E1000E269521E03E05A4502DAE269521CE261BD
:100E200030F83120E28230F83100B4F91810401A5D
:100E3000E16900EB413000EE100A2062B8EEC00A12
:100E400060EE080A80EEA80A20EE090A10EE100AE9
:100E500007F0D2FBC4E90201384886425ED105980A
:100E600040450ED0A0F5007106390AD0A0F50071FA
:100E7000073906D0B0F5027F03D0B84201D048450B
:100E80004CD1401EC0B22870BDF80C104ABA00EB1D
:100E900080012B4820F831206A683AB100EBC10389
:100EA00030F83140DC821C83521E6A60BDF80E208F
:100EB00000EBC10452BA2282BDF8102052BA6282FD
:100EC0009DF81220227530F83120B4F91630D21A6C
:100ED000524502DDE269521E03E05A4502DAE26938
:100EE000521CE26130F83120E28230F83100B4F96E
:100EF0001810401AE16900EB413000EE100A206240
:100F0000B8EEC00A20EE080AC0EE280A20EE890AD0
:100F100010EE100A07F070FBC4E902010DB0BDEC41
:100F2000048BBDE8F08F0000080400200000B443EB
:100F30000000003960000020D80D0020300400209F
:100F4000180F0020704770477047000070B50446C6
:100F500090F82000012804D0606A40F4002060620C
:100F600018E0022084F820002068016821F00101C7
:100F7000016000F02BFB05460EE000BF00F026FBF1
:100F8000401B0A2808D9606A40F4003060620520DE
:100F900084F82000012070BD20684068C007EDD1B2
:100FA000606270BD70477047704770477047704708
:100FB00070472DE9F0410446876D00F007FB0646B7
:100FC00094F835000025022806D08020606584F85A
:100FD00034500120BDE8F0812068016821F016013D
:100FE00001602068416921F080014161206C08B9ED
:100FF000A06C20B12068016821F008010160206820
:10100000016821F0010101600CE000F0DFFA801BB3
:10101000052807D920206065032084F8350084F86E
:101020003450D7E720680068C007EED194F85C1010
:101030003F208840B860012084F8350084F834509F
:101040000020C7E790F83510022903D080214165C0
:1010500001207047052180F835100068016821F0F3
:1010600001010160002070472DE9F84304464FF06C
:101070000009CDF8009063484FF41651A56D006843
:10108000B0FBF1F72E6894F85C10082000FA01F12B
:1010900031420FD021680A6852070BD50A6822F046
:1010A00004020A6094F85C108840A860606D40F00B
:1010B0000100606594F85C104FF0010808FA01F037
:1010C000304208D021684969090604D5A860606DDE
:1010D00040F00200606594F85C10042088403042C3
:1010E00008D021680968890704D5A860606D40F0C0
:1010F0000400606594F85C1010208840304218D0DD
:1011000021680968090714D5A860206801684903A7
:1011100004D50068000308D5A16C07E00168C90583
:1011200003D4016821F008010160216C09B1204657
:10113000884794F85C1020208840304231D02168E4
:101140000968C9062DD5A86094F8350005282068DF
:10115000016806D0490347D5006800031DD4616CBF
:101160001CE021F0160101602068416921F0800136
:101170004161206C08B9A06C20B12068016821F0A1
:101180000801016094F85C103F208840A86084F852
:10119000358084F83490216D1FE0E16B09B1204661
:1011A0008847606D00282BD0606DC00714D00520E3
:1011B00084F835002068016821F001010160009881
:1011C000401C0090B84203D820680068C007F6D1E0
:1011D00084F8358084F83490E16C002910D001B097
:1011E0002046BDE8F04308470168C905D5D4016829
:1011F00021F01001016084F8358084F83490CCE748
:10120000BDE8F883200000202DE9F041044600F0FD
:10121000DDF906465CB1022084F83500002584F82B
:1012200034502068016821F0010101600DE00120C7
:10123000BDE8F08100F0CAF9801B052805D92020FF
:101240006065032084F83500F2E720680068C00775
:10125000F0D12268116820480140D4E90103184305
:10126000D4E903363343184363691843A369184329
:10127000E3691843236A18430843616A042903D1C8
:10128000D4E90B1319430843106020684069666A6B
:1012900020F0070130460E43012704280CD1A06A34
:1012A0000643E06A40B12046FFF7F2F920B1402042
:1012B000606584F83570BAE7206846612046FFF71C
:1012C000D3F994F85C203F2191408160656584F8F2
:1012D00035700020ACE700003F8010F02DE9F041B0
:1012E0000446866D90F83400002501280DD00120B9
:1012F00084F8340094F835700020012F07D084F86A
:10130000340002252846BDE8F0810220FBE70227D1
:1013100084F8357060652046FFF7E4F994F85C10B6
:101320003F208840B0602068016841F016010160EC
:10133000206C20B12068016841F00801016020683C
:10134000016841F001010160DCE7000070B504466E
:1013500000F03CF90546601C02D0044800780444C3
:1013600000F034F9401BA042FAD370BD14000020F5
:1013700070470000044910B50A68024202D00860B4
:10138000FFF7F6FF10BD0000143C01402DE9F84FB7
:10139000DFF8F8A10022012403254FF00F090AF11C
:1013A000040BAAF1040E00BF0B6804FA02F63340E6
:1013B000B34270D10F7907F00307012F01D0022F3C
:1013C00016D187684FEA420805FA08FC27EA0C079D
:1013D000D1F80CC00CFA08FC4CEA070CC0F808C0A5
:1013E0004768B7430E79C6F3001696403E43466001
:1013F0000E79F643B6070AD0C7684FEA420C05FAE1
:101400000CF6B7438E6806FA0CF63E43C6600E79BA
:1014100006F00306022E10D1D60800EB8608D8F895
:10142000206057074FEAD76C09FA0CF7BE430F69E3
:1014300007FA0CF73743C8F8207006684FEA420CE9
:1014400005FA0CF7BE430F7907F0030707FA0CF70C
:10145000374307604E6816F4403F1CD04C4E376847
:1014600047F480473760366822F0030706F4804669
:101470000096484E07EB060CDCF8086897073F0F0C
:1014800009FA07F826EA0806DFF80C81404503D17F
:101490004FF0000841E072E0DFF80081404502D1E2
:1014A0004FF0010839E0DFF8F880404502D14FF0F5
:1014B000020832E0DFF8EC80404502D14FF003082B
:1014C0002BE0DFF8E480404502D14FF0040824E02F
:1014D000DFF8D880404502D14FF005081DE0DFF865
:1014E000D080404502D14FF0060816E0DFF8C480F6
:1014F000404502D14FF007080FE0DFF8BC804045BF
:1015000002D14FF0080808E0DFF8B080404502D172
:101510004FF0090801E04FF00A0808FA07F848EA16
:101520000608CCF80888DAF800605746D1F804C0FD
:101530009E435FEACC2C00D51E433E60DBF8006082
:101540005F46D1F804C09E435FEA8C2C00D51E4351
:101550003E60DEF800607746D1F804C09E435FEA43
:101560008C3C00D51E433E60084F083F3E68D1F8D2
:1015700004C09E435FEACC3C00D51E433E60521C33
:10158000102AFFF411AFBDE8F88F0000083C0140BD
:101590004438024000300140000002400004024094
:1015A00000080240000C02400010024000140240FB
:1015B00000180240001C02400020024000240240AB
:1015C0000AB1816170470904FBE7000001488068A7
:1015D000704700001400002002488168027811441E
:1015E00081607047140000200B4810B5016841F479
:1015F00000710160016841F480610160016841F49B
:1016000080710160032000F09FF80F2000F006F8C1
:1016100000F050F8002010BD003C024030B50546F7
:101620001F4887B00024016841F080010160006814
:1016300006A900F08000009001A800F031F904989C
:10164000A8B100F04DF940001649174AB0FBF1F17E
:101650001648491E026040F2E732C0E90324C0E99F
:101660000114846100F03EFD040003D015E000F099
:1016700037F9E9E70D4800F0FDFD04000DD12C20FD
:1016800000F034F8102D07D2002229462C2000F05B
:101690003BF80748056000E0012407B0204630BD54
:1016A0004038024040420F00001C0040B40C0020B3
:1016B000180000200C4882B0016841F480410160AC
:1016C000006800F4804000900748001F016841F066
:1016D000805101600068002200F0805000900F21CE
:1016E000901E02B000F010B844380240002809DB18
:1016F00000F01F02012191404009800000F1E0202C
:10170000C0F8001170470000F0B40E4B1B680C4687
:10171000C3F30223C3F10705042D00D90425191DC5
:10172000072901D2002300E0DB1E012606FA05F19D
:10173000491E214099409E40761E16403143F0BC20
:1017400003F0BDBA0CED00E0064900F0070208689E
:101750004FF6FF03184040EA0220034A1043086096
:10176000704700000CED00E00000FA052DE9F0479D
:101770000E46050065D0DFF81481D8F80000F7B2F6
:1017800000F00F00B04207D288F80070D8F80000CF
:1017900000F00F00B04254D128683D4C810712D5AB
:1017A000400703D5206840F4E05020602878000707
:1017B00003D5206840F4604020602068A96820F0CC
:1017C000F000084320602878C0072DD030496868B1
:1017D0000839012812D0022813D0032811D0096833
:1017E000890700292DDA216821F0030101432160D6
:1017F000FFF7ECFE814641F2883A0EE00968890362
:10180000EFE709688901ECE7FFF7E0FEA0EB0901CB
:10181000514502D90320BDE8F0872068696800F0CF
:101820000C00B0EB810FEFD1D8F80010404601F06A
:101830000F01B14207D90770006800F00F00B042F5
:1018400001D00120E7E72878400705D52068E9683E
:1018500020F4E050084320602878000706D520686F
:10186000296920F4604040EAC100206000F058F887
:101870002168084AC1F30311515CC8400649086059
:1018800006480068FFF7CAFE0020C4E7003C02409B
:1018900008380240148700082000002018000020AB
:1018A0000F2202600C4A136803F0030343601368BD
:1018B00003F0F0038360136803F4E053C36012681D
:1018C0004FF4E05303EAD20202610448006800F0DA
:1018D0000F0008607047000008380240003C0240DA
:1018E0000448054900680968044AC1F38221515C33
:1018F000C8407047200000200838024024870008B4
:101900000448054900680968044AC1F34231515C42
:10191000C840704720000020083802402487000893
:10192000154810B5006810F00C02144813D0144983
:10193000042A0FD0082A0ED10F4C241F22682368D6
:1019400002F03F025B0207D52068C0F38810A0FBBD
:10195000010106E0084610BD2168C1F38811A1FB12
:1019600000010023FEF702FD2168C1F30141491C7B
:101970004900B0FBF1F010BD083802400024F4002B
:10198000001BB7002DE9F84F04006ED02078DFF877
:101990004C93C007A9F104054AD009F1040001687D
:1019A000C1F38101012908D00068C0F38100022839
:1019B0000AD1D9F80000400206D52868800337D53F
:1019C00060680028E1D033E06068B0F5803F10D057
:1019D000B0F5A02F286810D020F480302860286847
:1019E00020F4802028606068A8B1FFF7EFFD06466C
:1019F0000DE0286840F48030F4E740F4802028604F
:101A0000F7E700BFFFF7E2FD801B642873D8286862
:101A10008003F7D50CE0FFF7D9FD064605E000BFCF
:101A2000FFF7D4FD801B6428F0D828688003F7D422
:101A30002078DFF8AC8280074FF0000A3ED5A74837
:101A4000001D016811F00C0F08D00068C0F3810080
:101A500002280BD1D9F80000400207D4286880077B
:101A600016D5E068012800D112E033E1E068B8B192
:101A70000120C8F80000FFF7A9FD064605E000BFF9
:101A8000FFF7A4FD801B0228C0D828688007F7D57F
:101A90002868216920F0F80040EAC10028600DE0C4
:101AA000C8F800A0FFF792FD064604E0FFF78EFDA0
:101AB000801B02281FD828688007F7D420780007E9
:101AC00022D5864F87486169703771B10121016065
:101AD000FFF77CFD064604E0FFF778FD801B022837
:101AE00009D838688007F7D50EE0C0F800A0FFF7E6
:101AF0006DFD064605E082E0FFF768FD801B0228C9
:101B00007DD838688007F7D42078400768D5DFF89B
:101B1000CCB100270BF13C0BDBF80000C0000BD46C
:101B2000DBF8001041F08051CBF80010DBF800002A
:101B3000012700F0805000906B4E3068C00510D433
:101B4000306840F480703060FFF740FD009005E0A1
:101B5000FFF73CFD0099401A022850D83068C005B4
:101B6000F6D55E4EA0686C3601280FD00528306887
:101B700010D020F001003060306820F004003060A8
:101B8000A068B8B1FFF722FD00900FE0306840F088
:101B90000100F4E740F004003060F7E7FFF716FDBE
:101BA0000099411A41F28830814266D83068800736
:101BB000F4D50EE0FFF70AFD009007E0FFF706FD01
:101BC0000099411A41F28830814256D83068800726
:101BD000F4D42FB1DBF8001021F08051CBF80010C5
:101BE000A069C8B33D49091D0968C1F381010229F3
:101BF0004AD00228504607D0C8F8600000E03CE018
:101C0000FFF7E4FC04463BE04746C8F86000FFF7F6
:101C1000DDFC064605E000BFFFF7D8FC801B02286C
:101C20002BD828688001F7D4D4E907010843A16ABA
:101C30002E4A490802EB0141626A41EA82110843D7
:101C400094F82C1040EA0161C9F8001001203866B0
:101C5000FFF7BCFC044606E03EE000BFFFF7B6FC21
:101C6000001B022809D828688001F7D534E000BF9E
:101C7000FFF7ACFC001B022802D90320BDE8F88F57
:101C800028688001F4D427E00128F7D0D9F80000B3
:101C9000E26900F4800191421CD1226A00F03F0108
:101CA000914217D147F6C071626A0140B1EB821FC1
:101CB00010D1A26A4FF0FF3300F4403103EB52021F
:101CC000B1EB024F06D194F82C1000F07060B0EB2D
:101CD000016F01D00120D1E70020CFE70438024096
:101CE00000004742800E4742007000400000FFFFA6
:101CF00070B5040009D0606A002540B125616561B6
:101D0000A56294F8510040B10CE0012070BD6068FC
:101D1000B0F5827FF4D0E561F2E784F850502046B8
:101D200000F044F8022084F851002068016821F096
:101D300040010160A088218900F4827001F404410F
:101D40000843A18901F400610843217C01F00201EC
:101D50000843217D01F001010843218B01F400714A
:101D60000843217F01F03801084394F8201001F066
:101D700080010843218D01F4005108432168086067
:101D8000A069042101EA104094F8241001F0100128
:101D90000843216848602068C16921F40061C1617D
:101DA0006565012084F85100002070BD10B586B033
:101DB000044614216846FEF782FB144920688842D5
:101DC00021D113480021026842F4801202600068A9
:101DD00000F4801005900E481438026842F020028A
:101DE0000260006800F0200005904FF460700090E1
:101DF0000220CDE9010103200390052004906946EB
:101E00000448FFF7C3FA06B010BD000000500140BF
:101E100044380240001402402DE9F84F044690F87F
:101E2000500000270A9E1D4692468B464FF001093E
:101E300001280ED0012084F85000FFF7C7FB804630
:101E400094F85100616801280CD0B1F5827F07D168
:101E500002E00220BDE8F88FA16809B9042801D08A
:101E60000227C2E0BBF1000F27D0BAF1000F24D047
:101E70001DB394F85100042802D0052084F85100C5
:101E800000206065C4F838A0E587A587C4F830B0A5
:101E9000E586A5862064606420680168490603D44D
:101EA000016841F040010160E068B0F5006F6068D2
:101EB00005D0E8B3012D46D07FE0012795E008B1B9
:101EC000012D39D1206B21680088C860206B801CEF
:101ED0002063E08E401EE0862EE02068816889073E
:101EE0000FD5E18E69B1B9F1010F0AD1216B0988D3
:101EF000C160206B801C2063E08E401EE0864FF0A6
:101F0000000920688168C9070CD0E18F51B1C06811
:101F1000A16B0880A06B801CA063E08F401EE0874F
:101F20004FF00109FFF752FBA0EB0800B04200E0C0
:101F300009E001D3701C50D1E08E0028CDD1E08F94
:101F40000028CAD13FE0206B216800780873206B1D
:101F5000401C2063E08E401EE0862EE020688168F1
:101F600089070FD5E18E69B1B9F1010F0AD1216B53
:101F700009780173206B401C2063E08E401EE086D0
:101F80004FF0000920688168C9070CD0E18F51B17A
:101F9000C068A16B0870A06B401CA063E08F401E5E
:101FA000E0874FF00109FFF711FBA0EB0800B042FA
:101FB00002D3701C01D010E07EB1E08E0028CDD19C
:101FC000E08F0028CAD142463146204602F0B6F8DA
:101FD00028B101272020606507E0032705E0A068FD
:101FE00018B92068C16880680090012084F8510009
:101FF000002084F8500038462CE77047704710B531
:1020000090F83C20012A22D0012280F83C20CA68A6
:102010008C6822F4407222434C6822F4806222438E
:102020000C6822F4006222430C6922F4805222439D
:102030004C6922F400522243C969002322F48042F1
:102040000A4301684A6480F83C30002010BD022039
:1020500010BD000070B590F83C20012A32D0012458
:1020600080F83C40022280F83D2003685A689D6851
:1020700022F070060A6832435A60134B02689A4293
:1020800014D0B2F1804F11D0104B9A420ED0104BA9
:102090009A420BD00F4B9A4208D00F4B9A4205D070
:1020A0000E4B9A4202D00E4B9A4204D1496825F059
:1020B00080031943916080F83D40002180F83C1076
:1020C000084670BD022070BD0000014000040040C1
:1020D00000080040000C00400004014000400140A6
:1020E0000018004010B5040003D094F83D0010B172
:1020F00007E0012010BD002084F83C00204600F0DD
:102100001FF8022084F83D00211D206802F01AF912
:10211000012084F8460084F83E0084F83F0084F8EB
:10212000400084F8410084F8420084F8430084F8B9
:10213000440084F8450084F83D00002010BD0000F4
:1021400008B501682748B1F1804F0BD0264A91426B
:1021500010D1016841F002010160006800F0020046
:10216000009008BD016841F001010160006800F0C5
:102170000100F5E71D4A914207D1016841F00401D1
:102180000160006800F00400EAE7194A914207D1B3
:10219000016841F008010160006800F00800DFE715
:1021A000144A914213D10F48001D016841F0020109
:1021B00001600068002200F0020000900F212C2036
:1021C000FFF7A2FABDE808402C20FFF78FBA0A4AB1
:1021D0009142C6D1016841F040010160006800F001
:1021E0004000BDE7403802400004004000080040C5
:1021F000000C0040000401400018004090F83D1021
:10220000012901D001207047022180F83D100068AB
:102210001149884214D0B0F1804F11D00F49884243
:102220000ED00F4988420BD00E49884208D00E4983
:10223000884205D00D49884202D00D49884204D118
:10224000816801F00701062903D0016841F001010E
:1022500001600020704700000000014000040040C1
:1022600000080040000C0040000401400040014014
:102270000018004090F83D10012901D0012070475E
:10228000022180F83D100168CA6842F00102CA606C
:1022900000681149884214D0B0F1804F11D00F4925
:1022A00088420ED00E4988420BD00E49884208D091
:1022B0000D49884205D00D49884202D00C49884218
:1022C00004D1816801F00701062903D0016841F0BB
:1022D000010101600020704700000140000400403F
:1022E00000080040000C0040000401400040014094
:1022F0000018004070B5044690F83C000025012805
:1023000017D0012684F83C60022084F83D00206844
:10231000826822F0770222F47F42826008685028A7
:1023200038D00DDC20284FD005DC90B3102811D117
:102330004AE0022070BD302846D040280AD13BE058
:1023400060282FD070280DD0B0F5805F03D0B0F595
:10235000005F12D0012584F83D60002084F83C0025
:10236000284670BDCB68D1E90121206802F05BF8F6
:102370002068816841F0770109E0CB68D1E901214B
:10238000206802F050F82068816841F48041816043
:10239000E1E719E0CA684968206802F019F950219C
:1023A000206806E0CA684968206802F022F96021C6
:1023B000206802F042F8CEE7CA684968206802F057
:1023C00007F940212068F4E7226801461046F0E74B
:1023D000704770B50446006801694FF00005C943B5
:1023E000890715D4C168C943890711D4E91E016161
:1023F00001202077206880698007204602D0FFF7FF
:10240000E7FF04E000F04AF9204600F0DCF9257708
:1024100020680169C943490717D4C168C9434907FE
:1024200013D46FF0040101610220207720688069D5
:1024300010F4407F204602D0FFF7CAFF04E000F00E
:102440002DF9204600F0BFF9257720680169C943BE
:10245000090716D4C168C943090712D46FF00801EF
:102460000161042020772068C0698007204602D0DF
:10247000FFF7AEFF04E000F011F9204600F0A3F9E9
:10248000257720680169C943C90617D4C168C943C3
:10249000C90613D46FF0100101610820207720686D
:1024A000C06910F4407F204602D0FFF791FF04E09E
:1024B00000F0F4F8204600F086F9257720680169DD
:1024C000C943C90708D1C168C943C90704D1891ED6
:1024D0000161204600F0DCF920680169C943090662
:1024E00009D4C168C943090605D46FF080010161B0
:1024F0002046FFF782FD20680169C943490609D4D7
:10250000C168C943490605D46FF040010161204606
:1025100000F0C8F920680169C94389060BD4C16875
:10252000C943890607D46FF0200101612046BDE848
:102530007040FFF763BD70BDF0B587B0044614214D
:102540006846FDF7BCFF20680024494902250123A5
:10255000B0F1804F11D0474A904223D1086840F033
:10256000020008600868694600F00200059020201B
:102570000090CDE9015440484CE0086840F001006B
:1025800008600868694600F0010005900F2000907F
:10259000CDE90154CDE90343384800BFFEF7F6FE0C
:1025A00007B0F0BD364A90420FD1086840F00800ED
:1025B00008600868694600F0080005904FF4704014
:1025C0000090CDE901542F4824E02F4F2F4A304E80
:1025D000B84222D1086840F480700860086800F4AE
:1025E00080700590086840F08000086008680093DB
:1025F000CDE9015400F08000CDE904506946039410
:102600001046FEF7C3FE4FF4E0500090CDE90154B0
:1026100069463046CDE90345C0E71E4B984211D1CB
:10262000086840F4807008600868694600F48070AB
:102630000590E4200090CDE901540320CDE903404A
:102640001046ABE7144A9042AAD1086840F08000D7
:1026500008600868694600F08000059040200090FE
:10266000CDE901540920CDE90340304696E700004A
:1026700030380240000400400004024000000240E4
:1026800000080040000C0240000C00400020024006
:10269000001C02400004014000180040704770B563
:1026A000044690F83C0000260D4601280FD001207A
:1026B00084F83C006AB1042A1DD0082A2FD00C2AC5
:1026C0003FD00126002084F83C00304670BD022037
:1026D00070BD206801F0BAFE2068816941F00801F0
:1026E00081612068816921F004018161206881692C
:1026F0002A69114311E0206801F0D8FE2068816941
:1027000041F4006181612068816921F48061816107
:10271000206881692A6941EA02218161D2E7206843
:1027200001F0FAFE2068C16941F00801C16120682A
:10273000C16921F00401C1612068C1692A6911439E
:1027400011E0206801F01CFF2068C16941F40061BC
:10275000C1612068C16921F48061C1612068C169DB
:102760002A6941EA0221C161ACE710B5040003D037
:1027700094F83D0010B107E0012010BD002084F85E
:102780003C00204600F01EF8022084F83D00211D88
:10279000206801F0D7FD012084F8460084F83E004F
:1027A00084F83F0084F8400084F8410084F8420037
:1027B00084F8430084F8440084F8450084F83D0020
:1027C000002010BD7047704710B50446022249B181
:1027D00004290ED0082913D094F84100012816D0FE
:1027E000012010BD94F83E000128F9D184F83E2064
:1027F0000FE094F83F000128F2D184F83F2008E070
:1028000094F840000128EBD184F8402001E084F8DE
:1028100041200122206801F0F9FD16492068164A7E
:10282000884201D0904203D1436C43F40043436497
:102830002068884213D0B0F1804F10D00F498842F1
:102840000DD00F4988420AD00E49884207D09042E5
:1028500005D00D49884202D00C49884204D18168D4
:1028600001F00701062903D0016841F00101016070
:10287000002010BD000001400004014000040040A1
:1028800000080040000C00400040014000180040DB
:1028900000680349884201D1FEF79EBE70470000E0
:1028A000001C00407047704710B50446006840693E
:1028B00094F83D10C0F3C010212911D180B12068D7
:1028C000143050E8001F21F0800140E80012002A77
:1028D000F5D1606B08B1FEF76CFB204601F0BAFF42
:1028E0002068406994F83E10C0F38010222911D16D
:1028F00080B12068143050E8001F21F0400140E80A
:102900000012002AF5D1A06B08B1FEF752FB204659
:1029100001F079FF002010BD70470000F8B5016894
:1029200004460868CA684B6910F00F0F4FF00005A5
:1029300059D003F0010602F49077374365D0C10700
:1029400005D0D10503D5216C41F001012164410777
:1029500005D5D90703D0216C41F00201216481071C
:1029600005D5D90703D0216C41F00401216401078A
:1029700007D502F02001314303D0216C41F008015A
:102980002164216C00293AD0800604D5900602D536
:10299000204601F06DFF20684069216CC0F3801073
:1029A000090700D460B3204601F02DFF206840697C
:1029B000400621D52068143050E8001F21F0400166
:1029C00040E80012002AF5D1A06BA8B16C4901655E
:1029D000A06BFEF737FB002811D0A06B016D01B092
:1029E000BDE8F040084783060FD593060DD5204675
:1029F000BDE8F84001F03CBF2046FFF78DFFF8BD71
:102A00002046FFF789FF2564F8BD266B2023012EA1
:102A100079D1C60677D5D60675D50868486800907E
:102A20004869400640D5A16B086840680004000C66
:102A3000EAD0A28D8242E7D9E085C869B0F5807FEF
:102A40002DD020680C3050E8001F21F4807140E840
:102A50000012002AF5D12068143050E8001F21F040
:102A6000010140E80012002AF5D12068143050E836
:102A7000001F21F0400140E80012002AF5D184F83F
:102A80003E30256320680C3050E8001F21F0100113
:102A900040E80012002AF5D1A06BFEF78AFAA08D5B
:102AA000E18D401A81B229E0A08DE18D401A81B2FA
:102AB000E08D0028A8D00029A6D020680C3050E86E
:102AC000002F22F4907240E80026002EF5D12068F5
:102AD000143050E8002F22F0010240E80026002EBA
:102AE000F5D184F83E30256320680C3050E8002F83
:102AF00022F0100240E80023002BF5D12046FFF71A
:102B0000D2FEF8BDFFE705062BD5150629D594F8AA
:102B10003D002128F5D1A068B0F5805F01D1206982
:102B2000B0B1206A411C2162216800784860E08CC5
:102B3000401E0004000CE084E3D12068C16821F04D
:102B40008001C1602068C16841F04001C160D8E7E0
:102B5000206A0088C0F308004860206A801C206258
:102B6000E5E74006CDD55006CBD5CA68204622F011
:102B70004002CA6084F83D3000F0BFF9C1E70000B0
:102B80001147000870B5040004D094F83D000025FA
:102B900010B106E0012070BD84F83C50204600F0E2
:102BA00023F8242084F83D002068C16821F40051F6
:102BB000C160204601F0BCFE2068016921F490410B
:102BC00001612068416921F02A0141612068C168E2
:102BD00041F40051C1602564202084F83D0084F850
:102BE0003E00002070BD00002DE9F04F87B0054683
:102BF00014216846FDF763FCA748DFF89882103877
:102C0000D5F800C00024A44B022203210827DFF8D6
:102C10008CA206154FF02069C44536D1D3F800C008
:102C20004CF0804CC3F800C01B6803F08043059350
:102C3000036843F0100303600068CDE9024100F02F
:102C400010000590C801CDE900020497694650467E
:102C5000FEF79CFB934F92483860C7E90194C7E99F
:102C600003467C61BC61FC613C6238467C62FEF7D5
:102C7000CBFA08B1FDF75CFDAF63002205215220BD
:102C8000BD63FEF741FD522039E0DFF81C82C445E8
:102C90003AD1D3F800C04CF0004CC3F800C01B6818
:102CA00003F000430593036843F0100303600068DA
:102CB00000F0100005908DE81600CDE90317694675
:102CC0005046FEF763FB774F7548603748303860F1
:102CD000C7E90194C7E903467C61BC61FC613C62C1
:102CE00038467C62FEF790FA08B1FDF721FDAF632C
:102CF000002205215320BD63FEF706FD5320FEF799
:102D0000F5FC07B0BDE8F08FDFF8A081DFF888A1FF
:102D10004FF0070B0AF1040AC4453ED1DAF80070FF
:102D200047F01007CAF80070DAF8003003F010031B
:102D30000593036843F0020303600068CDE9024194
:102D400000F002000590C020CDE90002CDF810B0DF
:102D500069465748FEF71AFB524F5648C03738604D
:102D60004FF00060C7E90104C7E90346C0147C6165
:102D7000C7E906404FF44030C7E908043846FEF77B
:102D800043FA08B1FDF7D4FCAF63002205212520EA
:102D9000BD63FEF7B9FC2520B1E7DFF81C81C4450F
:102DA00039D11F6847F480271F601B6803F4802314
:102DB0000593036843F0080303600068CDE902410E
:102DC00000F0080005904FF44070CDE90002CDF806
:102DD00010B069463948FEF7D9FA3148384F3038D3
:102DE00038604FF00060C7E90104C7E903467C6121
:102DF000BC61FC613C6238467C62FEF705FA08B1B2
:102E0000FDF796FCAF63002205212720BD63FEF786
:102E10007BFC272073E72B4B9C457FF472AFDAF8DD
:102E200000C04CF0200CCAF800C0DAF8003003F003
:102E300020030593036843F0400303600068CDE975
:102E4000024100F0400005904FF48440CDE90002BB
:102E5000049769461C48FEF799FA194F15486037E0
:102E600018383860C7E90194C7E903467C61BC6142
:102E7000FC613C6238467C62FEF7C6F908B1FDF79A
:102E800057FCAF63002205214720BD63FEF73CFCE1
:102E9000472034E7007800404038024000100240EC
:102EA00058600240D40A0020007C0040001001401D
:102EB000000402404064024000480040000C024010
:102EC000F40B0020001401400018024090F83E303E
:102ED000202B0ED159B152B190F83C30012B08D0C3
:102EE000012380F83C300023036301F0A7BD0120DB
:102EF000704702207047704770477047FEE7000038
:102F00002DED028B074C9FED088A00BF03F022F9DC
:102F1000D4ED030AB0EE480A04F0B0F9012003F042
:102F20002DFDF3E7C41000200000684210B5002218
:102F30004FF4FF710848FEF743FB00224FF4006195
:102F40000648FEF73DFBBDE8104000224FF48041EB
:102F50000348FEF735BB0000001802400010024095
:102F60000014024070B5564A1046D67881788479AC
:102F700043790579534830392E2E02D02E2D12D0A8
:102F80002BE001EB4102C2EBC11104EBC101642251
:102F900015FB02F203EB830302EB43021144A1F59C
:102FA000A051D03918E042F2107511FB05F106EB83
:102FB0004605C5EBC61501EBC50103EBC30505EBE3
:102FC000031301EB830104EB8403D27901EB43018A
:102FD0001144A1F55041503981603B4B1A46DE78CF
:102FE000917895795479127930392E2E02D02E2A83
:102FF00012D02BE001EB4103C3EBC11105EBC10182
:10300000642312FB03F204EB840302EB430211443A
:10301000A1F5A051D03918E042F2107211FB02F173
:1030200006EB4602C2EBC61201EBC20104EBC4027E
:1030300002EB041201EB820105EB850201EB420178
:10304000DA791144A1F550415039C1601F4B1A463D
:10305000DE78917895795479127930392E2E1CD0FA
:103060002E2A19D142F2107211FB02F106EB460230
:10307000C2EBC61201EBC20104EBC40202EB041264
:1030800001EB820105EB850201EB4201DA79114483
:10309000A1F550415039016170BD01EB4103C3EB13
:1030A000C11105EBC101642312FB03F204EB84039D
:1030B00002EB43021144A1F5A051D039EBE7000027
:1030C0006006002028000020F0070020B80800203B
:1030D0000F4810B50D4901600321416000214FF4F4
:1030E00010228160C0E903124FF4001242610176A0
:1030F00041768176C17601774177FDF726FD00287C
:1031000003D0BDE81040FDF713BB10BD00640040C4
:10311000080400200F4810B50D49016003214160EB
:1031200000214FF410228160C0E903124FF4001215
:103130004261017641768176C17601774177FDF76C
:1031400004FD002803D0BDE81040FDF7F1BA10BD22
:1031500000680040300400201D4808B5016841F4B3
:1031600080010160016801F480010091016841F46F
:10317000001101600068002200F400100090052199
:103180000C20FEF7C1FA0C20FEF7B0FA0022052150
:103190000E20FEF7B9FA0E20FEF7A8FA002205214C
:1031A0001120FEF7B1FA1120FEF7A0FA0022052146
:1031B0003920FEF7A9FA3920FEF798FA00220521F6
:1031C0003A20FEF7A1FABDE808403A20FEF78EBA91
:1031D0003038024000B587B01C2206496846FDF72A
:1031E0003CF90021684603F0D5FB0349086007B0AD
:1031F00000BD0000F0860008000000202DE9F04F1F
:1032000087B014216846FDF75AF97C48002501680B
:1032100041F010010160016801F0100105910168A1
:1032200041F002010160016801F0020105910168AD
:1032300041F040010160016801F040010591016821
:1032400041F001010160016801F00101059101688F
:1032500041F008010160016801F008010591016871
:1032600041F480710160016801F480710591016889
:1032700041F020010160016801F020010591016821
:1032800041F080010160016801F080010591016851
:1032900041F0040101600068002200F00400059084
:1032A00041F270015648FEF78BF9DFF858B14FF440
:1032B000FF79012249465846FEF782F90022402153
:1032C0005148FEF77DF900221C215048FEF778F99D
:1032D0004FF4006A012251464948FEF771F9002275
:1032E00003214B48FEF76CF9012291034648FEF793
:1032F00067F941F21000112701240326CDE90007E8
:10330000CDE9024669463E48FEF740F860208DE868
:10331000710069463A48FEF739F840F203404FF42D
:103320008818CDE90008694602943748FEF72EF860
:10333000CDF80090CDE90145694658460395FEF762
:1033400025F844F240008DE8310069462E48039587
:10335000FEF71CF80C208DE8710069462B48FEF73B
:1033600015F80420CDE90008694602942848FEF7C4
:103370000DF810208DE83100694624480395FEF7CA
:1033800005F8CDF800A0CDE9014569461C48039534
:10339000FDF7FCFF0220CDE90007CDE902466946B2
:1033A0001B48FDF7F3FFCDE9024600946946184833
:1033B0000194FDF7EBFF002205210620FEF7A4F99A
:1033C0000620FEF793F9002205210720FEF79CF95D
:1033D0000720FEF78BF9002205210820FEF794F95B
:1033E0000820FEF783F9002205212820FEF78CF93A
:1033F0002820FEF77BF907B0BDE8F08F3038024097
:103400000010024000180240001402400008024070
:10341000000402400F4810B50D4901604FF482715D
:10342000416000218160C1604FF400720161C0E918
:103430000512C1610162416281620A21C162FEF727
:1034400057FC002803D0BDE81040FDF771B910BD4E
:10345000005001405804002010B58CB0002407949F
:10346000089409941C2168460A94FDF728F8194825
:103470001749C0E900144FF6FF71C0E90241046129
:103480008461FEF72FFE08B1FDF752F94FF480502A
:10349000079007A90F48FEF72DFF08B1FDF748F97F
:1034A0000C48FFF762F908B1FDF742F96020CDE959
:1034B000000402940022694606480494FFF7EFF8DE
:1034C00008B1FDF735F90348FFF736F80CB010BD29
:1034D000001800401806002010B58EB00024079494
:1034E000089409940A940B941C2168460C94FCF7E8
:1034F000E6FF29484FF0804101605321C0E90114E3
:10350000611EC0E903148461FEF7ECFD08B1FDF70C
:103510000FF94FF48050079007A91F48FEF7EAFE05
:1035200008B1FDF705F91C48FFF71FF908B1FDF7D1
:10353000FFF80B940BA918480C94FEF78BFD08B10B
:10354000FDF7F6F86020CDE90004029400226946F8
:1035500011480494FFF7A3F808B1FDF7E9F8042235
:1035600069460D48FFF79BF808B1FDF7E1F808221E
:1035700069460948FFF793F808B1FDF7D9F80C221E
:1035800069460548FFF78BF808B1FDF7D1F8024806
:10359000FEF7D2FF0EB010BDB004002010B58EB003
:1035A00000240794089409940A940B941C216846FB
:1035B0000C94FCF784FF1E481C49C0E900144FF628
:1035C000FF71C0E9024104618461FEF78BFD08B11F
:1035D000FDF7AEF84FF48050079007A91448FEF7A6
:1035E00089FE08B1FDF7A4F81148FFF7BEF808B14D
:1035F000FDF79EF80B940BA90D480C94FEF72AFDDD
:1036000008B1FDF795F86020CDE90004029404228A
:10361000694607480494FFF742F808B1FDF788F8B7
:103620000348FEF789FF0EB010BD00000004004003
:10363000F804002010B58EB0002407940894099473
:103640000A940B941C2168460C94FCF738FF2A4816
:10365000284901605321C0E901144FF6FF71C0E908
:1036600003148461FEF73EFD08B1FDF761F84FF4E5
:103670008050079007A92048FEF73CFE08B1FDF7EF
:1036800057F81D48FFF771F808B1FDF751F80B9492
:103690000BA919480C94FEF7DDFC08B1FDF748F8BA
:1036A0006020CDE900040294002269461248049487
:1036B000FEF7F5FF08B1FDF73BF8042269460E4816
:1036C000FEF7EDFF08B1FDF733F8082269460A4816
:1036D000FEF7E5FF08B1FDF72BF80C226946064816
:1036E000FEF7DDFF08B1FDF723F80348FEF724FFDE
:1036F0000EB010BD000800404005002010B58EB08F
:1037000000240794089409940A940B941C21684699
:103710000C94FCF7D4FE2A48284901605321C0E9E3
:103720000114611EC0E903148461FEF7DBFC08B1DB
:10373000FCF7FEFF4FF48050079007A92048FEF7E2
:10374000D9FD08B1FCF7F4FF1D48FFF70EF808B1EA
:10375000FCF7EEFF0B940BA919480C94FEF77AFCCA
:1037600008B1FCF7E5FF6020CDE9000402940022D7
:10377000694613480494FEF792FF08B1FCF7D8FF9E
:10378000042269460E48FEF78AFF08B1FCF7D0FF15
:10379000082269460A48FEF782FF08B1FCF7C8FF15
:1037A0000C2269460648FEF77AFF08B1FCF7C0FF15
:1037B0000348FEF7C1FE0EB010BD0000000C004033
:1037C0008805002010B596B000240F941094119431
:1037D000129413941C2168461494FCF770FE202167
:1037E00007A8FCF76CFE344832490160A721C0E904
:1037F00001144FF6FF71C0E9031444618461FEF7C0
:1038000071FC08B1FCF794FF4FF480500F900FA9A2
:103810002948FEF76FFD08B1FCF78AFF2648FEF73E
:10382000A4FF08B1FCF784FF139413A92248149451
:10383000FEF710FC08B1FCF77BFF6020CDE9000427
:103840000294039404940594002269461A4806944D
:10385000FEF725FF08B1FCF76BFF04226946164806
:10386000FEF71DFF08B1FCF763FF08226946124806
:10387000FEF715FF08B1FCF75BFF0C2269460E4806
:10388000FEF70DFF08B1FCF753FF07940894099465
:103890004FF400500A94CDE90B4007A906480E9456
:1038A000FEF7ADFB08B1FCF743FF0348FEF744FE0B
:1038B00016B010BD00040140D005002010B5134C17
:1038C00011480C2120604FF4E13060600020A060BE
:1038D000E060C4E90401A061E0612046FFF752F90D
:1038E00008B1FCF725FF2068C16841F02001C160E4
:1038F0002068C16841F01001C160BDE81040C822D5
:1039000003490248FFF7E2BA00780040800900202E
:10391000F007002010B5134C11480C2120604FF423
:10392000E13060600020A060E060C4E90401A061B3
:10393000E0612046FFF726F908B1FCF7F9FE2068A0
:10394000C16841F02001C1602068C16841F01001E8
:10395000C160BDE81040C82203490248FFF7B6BA6B
:10396000007C0040C4090020B80800200D4810B5B4
:103970000B4901600C49416000214FF48062816075
:10398000C0E903120C22C0E90521C161FFF7FAF872
:10399000002803D0BDE81040FCF7CABE10BD0000EF
:1039A00000100140080A0020A086010010B5104C4C
:1039B0000E480C2120604FF4165060600020A0607B
:1039C000E060C4E90401A061E0612046FFF7DAF895
:1039D00008B1FCF7ADFE2068C16841F02001C1606C
:1039E0002068C16841F01001C16010BD004800406E
:1039F0004C0A002010B5134C11480C2120604FF4E4
:103A0000E13060600020A060E060C4E90401A061D2
:103A1000E0612046FFF7B6F808B1FCF789FE2068A0
:103A2000C16841F02001C1602068C16841F0100107
:103A3000C160BDE81040C82203490248FFF746BAFA
:103A400000140140900A002028070020FEE7FEE74E
:103A50002DE9F04701462DED068BDFEDFE9A9FED37
:103A6000FE9ADFEDFE8A9FEDFEAAFE4D05F5187069
:103A70009FEDFD8AD4297CD07CDCFC4C792904F5AF
:103A8000187978D078DCF9486F2900F1E40600F164
:103A9000980500F14C0770D070296FD103F00CF835
:103AA000226CF0EE482AB0EE482AF6EE001AB0EE8C
:103AB000491AF0EE680A0021B0EE480AEB48904738
:103AC000384602F0F9FFD4F88C20F0EE482AB0EE28
:103AD000482AF6EE001AB0EE491AF0EE680A002104
:103AE000B0EE480A38469047284602F0E5FFD4F881
:103AF000D820F0EE482AB0EE482AF6EE001AB0EED2
:103B0000491AF0EE680A0021B0EE480A28469047AC
:103B1000304602F0D1FFD4F82421F0EE482AB0EE6E
:103B2000482AF6EE001AB0EE491AF0EE680A0021B3
:103B3000B0EE480A30469047CD4802F0BDFFD9F8B4
:103B400040204C46F0EE482AB0EE482AF6EE001A25
:103B5000B0EE491AF0EE680A0021B0EE480AC448F7
:103B60009047C3484C30054602F0A6FFF0EE482AC5
:103B700005E059E168E004E141E0ADE060E0D4F83F
:103B80008C20B0EE482AF6EE001AB0EE491AF0EE9C
:103B9000680A0021B0EE480A28469047B448983099
:103BA000054602F089FFD4F8D820F0EE482AB0EE9E
:103BB000482AF6EE001AB0EE491AF0EE680A002123
:103BC000B0EE480A28469047A948E430054602F07E
:103BD00073FFD4F82421F0EE482AB0EE482AF6EE1E
:103BE000001AB0EE491AF0EE680A0021B0EE480A59
:103BF000284600BFBDEC068BBDE8F04710477A2988
:103C00007ED0D3291CD1002404EB440000EB041027
:103C100005EB8006304602F04FFF326C3046F0EE86
:103C2000692AB0EE4A2AF0EE081AB0EE491AF0EE10
:103C3000680A0021B2EE040A9047641C042CE3DBFE
:103C4000BDEC068BBDE8F087DD297DD0DE297CD078
:103C5000884CDFED898AA1F62931B1F5604175D034
:103C60000129EDD104269FED859A04F50578DFED55
:103C7000849A00BF06EB460000EB061704EB8705AD
:103C8000284602F019FF2A6C2846F0EE482AB0EECA
:103C9000482AF3EE0E1AB0EE491AF0EE680A002137
:103CA000B0EE480A904708EB8705284602F004FF6B
:103CB0002A6C2846F0EE482AB0EE482AF3EE041AA1
:103CC000B2EE041AF0EE690A0021B0EE480A9047FD
:103CD000761C072ECEDBB3E7644802F0EDFE226CC3
:103CE000F0EE692AB0EE482AF0EE081AB0EE491A52
:103CF000F0EE680A0021B0EE480A5C48904700E008
:103D00005DE0384602F0D8FED4F88C20F0EE692A47
:103D1000B0EE482AF0EE081AB0EE491AF0EE680A42
:103D20000021B0EE480A38469047284602F0C4FE0B
:103D3000F0EE692AB0EE482AF0EE081AB0EE491A01
:103D4000F0EE680A002102E0C0E0DEE012E1D4F803
:103D5000D820B0EE480A28469047304602F0ACFE24
:103D6000F0EE692AB0EE482AF0EE081AB0EE491AD1
:103D7000F0EE680A0021B0EE480A3046D4F824215B
:103D800038E7042606EB460000EB061004EB80053E
:103D9000284602F091FE2A6C2846F0EE692AB0EE21
:103DA0004A2AF0EE081AB0EE491AF0EE680A00212D
:103DB000B2EE040A9047761C082EE3DB40E70425A8
:103DC000A0464E4605EB450000EB051708EB8704BF
:103DD000204602F071FE226C2046F0EE692AB0EE19
:103DE000482AF0EE081AB0EE491AF0EE680A0021EF
:103DF000B2EE040A904706EB8700044602F05CFE30
:103E0000226C2046F0EE482AB0EE482AF7EE001A5F
:103E1000B0EE491AF0EE680A0021B2EE040A9047AB
:103E20006D1C082DCEDB0BE7DFED16AA00248046C3
:103E300004EB440000EB041705EB8706304602F064
:103E40003BFE3046F0EE692AB0EE4A2AF0EE081A40
:103E50001AE00000713D8A3E00409C4500FC7F4610
:103E6000CDCC4C3DE81500200000000028110020BA
:103E700088130020A81A00200060EA460000FA44D7
:103E80000000B44300007A44326CB0EE6A1AF0EEDF
:103E9000680A0021B0EE480A904708EB87063046D2
:103EA00002F00AFE326C3046F2EE0E2AB0EE482ADC
:103EB000F1EE041AB0EE491AF0EE680A0021B0EEF5
:103EC000480A9047641C042CB2DBB9E65FF0040496
:103ED00004EB440000EB041005EB8006304602F0D2
:103EE000EBFD326C3046F0EE692AB0EE4A2AF0EE75
:103EF000081AB0EE491AF0EE680A0021B0EE480A3E
:103F00009047641C082CE3DB9AE604244FEA00087F
:103F100004EB440000EB041705EB8706304602F083
:103F2000CBFD326C3046F0EE692AB0EE4A2AF0EE54
:103F3000081AB0EE491AF0EE680A0021B2EE040A3F
:103F4000904708EB8706304602F0B6FDB0EE482AEF
:103F5000326C3046F0EE422AF2EE041AB0EE491A04
:103F6000F0EE680A0021B2EE040A9047641C082CA7
:103F7000CEDB65E69FED109A042600BF06EB4600F7
:103F800000EB061004EB8005284602F095FDB0EE2C
:103F9000482AF0EE680A2A6C2846F0EE422AF0EE33
:103FA000491AB0EE601A0021B2EE040A9047761C5E
:103FB000072EE3DB44E600000000FA432DE9F04160
:103FC0003F4F00240546B8421DD13846FEF716F98A
:103FD00000213846FEF7F8FB3A48046004213846D1
:103FE000FEF7F2FB3748001D046008213846FEF753
:103FF000EBFB3448083004600C213846FEF7E4FB44
:1040000030480C300460304885421CD1FEF7F6F889
:1040100000212D48FEF7D8FB2C48046004212A48D3
:10402000FEF7D2FB2948001D046008212648FEF750
:10403000CBFB2648083004600C212348FEF7C4FB64
:1040400022480C3004602248854217D1FEF7D6F88A
:1040500000211F48FEF7B8FB4FF08046746304212F
:104060001B48FEF7B1FBB46304211948FEF7ACFB13
:10407000F46304211648FEF7A7FB3464BD421DD14A
:104080001448FEF7BBF800211248FEF79DFB1248CA
:10409000046004210F48FEF797FB0F48001D0460E1
:1040A00008210C48FEF790FB0B48083004600C21F7
:1040B0000848FEF789FB08480C300460BDE8F08131
:1040C000400500203408004088050020340C0040E2
:1040D000B0040020D00500203404014030B5144B5A
:1040E0001C68656945F0400565611B68DC6844F043
:1040F0001004DC600F4B1C68256825F00105256065
:104100001C682568ED07F7D11D680B4CAC601C6876
:10411000E06018680161186842601868016841F43D
:10412000802101601868016841F00101016030BD23
:10413000080A0020940B00200410014038B5044602
:104140001248134B0068B0FBF3F04FF47A735843F6
:1041500000906068B0F5827F0DD10B46009200227E
:104160008021204600F016F870B1606D40F020000C
:104170006065032038BD009830B1401E0090206873
:104180008068C0430006F6D5002038BD200000201E
:1041900000366E012DE9F8431E46914688460446D6
:1041A000089DFDF713FA401B351AFDF70FFA074675
:1041B00025480068C0F3CB30684338E0701C37D026
:1041C000FDF704FAC01BA84203D215B1009860B3F2
:1041D0002CE02068416821F0E00141606068B0F5A2
:1041E000827F0BD1A068B0F5004F02D0B0F5806F90
:1041F00004D12068016821F040010160A06AB0F597
:10420000005F09D12068016821F400510160206835
:10421000016841F400510160012084F85100002040
:1042200084F850000320BDE8F8830025401E00906C
:104230002068816838EA010004D000214945BDD1D9
:104240000020F0E70121F9E720000020012002F022
:1042500095FBFBE710B5502080F31188BFF34F8F1B
:10426000BFF36F8F03F0F0FA18B104494FF080509C
:104270000860002080F3118810BD000004ED00E00C
:1042800030B593B030216846FCF719F914210CA819
:10429000FCF715F91C480025016841F080510160C8
:1042A000006800F0805011901848016841F44041C6
:1042B00001600068022400F4404011900120009049
:1042C000000401908001CDE9064006200890A82056
:1042D000CDE9090404200B906846FDF753FB00B1BB
:1042E000FEE70CA90F2081E831004FF4A0500F9099
:1042F0004FF48050109005210CA8FDF737FA0028E4
:1043000000D0FEE713B030BD4038024000700040DE
:104310000248016841F470010160704788ED00E0D7
:10432000012002F02BFBFBE710B50448FEF751F823
:10433000BDE810400248FEF74CB80000D005002050
:10434000B40C0020F0B50268254C264D264E274FB0
:10435000274B4FF0804CA04209D0604507D0A842BF
:1043600005D0B04203D0B84201D0984204D122F027
:10437000700E4A6842EA0E02A0421BD0604519D076
:10438000A84217D0B04215D0B84213D0984211D0ED
:10439000184DA8420ED0184DA8420BD0174DA84278
:1043A00008D0174DA84205D0164DA84202D0164D90
:1043B000A84203D122F44075CA682A434D6922F00D
:1043C00080022A4302608A68C2620A688262A0424E
:1043D00001D0984201D10969016301214161F0BD19
:1043E000000001400004004000080040000C0040B4
:1043F00000040140004001400044014000480140E9
:1044000000180040001C00400020004010B501F0E2
:104410001F030121046A99408C430462016A9A4097
:104420001143016210BD10B5846842EA032224F4EE
:104430007F440A432243826010BD826822F07002EA
:104440000A4342F00701816070470000F0B5026A3C
:1044500022F001020262036A42688469124E24F06B
:1044600073050C682C4323F002058B682B430D4D1C
:10447000A84201D0B04205D123F00807CB683B43E6
:1044800023F00403A84201D0B04205D14D6922F4C3
:10449000407215438A692A434260846149684163D6
:1044A0000362F0BD0000014000040140F0B5026A63
:1044B00022F010020262026A436884690D6824F4E3
:1044C000E64444EA05248D6822F0200242EA0512FF
:1044D0000F4D104EA84201D0B04206D1CF6822F055
:1044E000800242EA071222F04002A84201D0B04204
:1044F00007D14D6923F4406343EA85038D6943EA9C
:10450000850343608461496881630262F0BD0000F5
:104510000000014000040140F0B5026A22F48072FC
:104520000262026A4368C46922F4007224F07305CF
:104530000C68124E2C438D6842EA05220E4DA842AB
:1045400001D0B04206D1CF6822F4006242EA0722CD
:1045500022F48062A84201D0B04207D14D6923F411
:10456000405343EA05138D6943EA05134360C46170
:104570004968C1630262F0BD0000014000040140CF
:1045800030B5026A22F480520262046A4268C3694A
:104590000D6823F4E64343EA05238D6824F40054B0
:1045A00044EA0534084DA84202D0084DA84204D17F
:1045B0004D6922F4804242EA85124260C361496833
:1045C0000164046230BD00000000014000040140AD
:1045D00010B5036A046A24F001040462846924F0BB
:1045E000F00444EA021423F00A020A4384610262DE
:1045F00010BD10B5036A23F0100303628369046AD7
:1046000023F4704343EA023224F0A00343EA011189
:104610008261016210BD0000F8B5194800680168A8
:10462000184E194DC1F30011002479B10168416899
:104630000091016840681248FEF736F91348006897
:104640004068C0F1C8002870012030700C48FEF7A7
:1046500065F9C8220E490A48FEF738FC307801286F
:104660000AD12C7034700020094902E00C54401C1F
:10467000C0B22A789042F9D3BDE8F840FEF772BC88
:10468000800900200D0000200C000020D40A00202A
:10469000F0070020F8B5194800680168184E194D58
:1046A000C1F30011002479B10168416800910168EB
:1046B00040681248FEF7F8F8134800684068C0F1F7
:1046C000C8002870012030700C48FEF727F9C82276
:1046D0000E490A48FEF7FAFB307801280AD12C70FF
:1046E00034700020094902E00C54401CC0B22A7802
:1046F0009042F9D3BDE8F840FEF734BCC40900206D
:104700000F0000200E000020340B0020B80800200D
:1047100010B5806B0021C185C184FEF7FDF810BD86
:1047200070B5846B2068406994F83D10C0F3C010E8
:104730000025212904D118B1E584204600F08AF82B
:104740002068406994F83E10C0F38010222904D1FB
:1047500018B1E585204600F056F8206C40F01000B6
:1047600020642046FEF7D8F870BD10B50146806B76
:1047700009680968C9052FD40021C18501680C3179
:1047800051E8002F22F4807241E80023002BF5D17C
:104790000168143151E8002F22F0010241E80023A2
:1047A000002BF5D10168143151E8002F22F04002AE
:1047B00041E80023002BF5D1202180F83E10016B49
:1047C000012909D101680C3151E8002F22F01002B3
:1047D00041E80023002BF5D1016B012902D0FEF73F
:1047E0008AFB10BD818DFEF75EF810BD10B5806BA1
:1047F000016B012902D0FEF77FFB10BD818D4908B6
:10480000FEF751F810BD01680C3151E8002F22F479
:10481000907241E80023002BF5D10168143151E872
:10482000002F22F0010241E80023002BF5D1016B9B
:10483000012909D101680C3151E8002F22F0100242
:1048400041E80023002BF5D1202180F83E10002103
:104850000163704701680C3151E8002F22F0C0025B
:1048600041E80023002BF5D1202180F83D1070474E
:1048700008B590F83E10222901D0022008BD8268B8
:104880004FF480539A4201D1016921B1816A9A4261
:104890001BD04AB10AE00268816A5268C2F308027A
:1048A0000A80816A891C08E0026972B10268526854
:1048B00002F07F020A70816A491C8162C18D491E23
:1048C0000904090CC18503D019E002685268F1E7B8
:1048D0000168CA6822F02002CA600168CA6822F42E
:1048E0008072CA6001684A6922F001024A6120218F
:1048F00080F83E10016B012903D0FEF7FCFA00207E
:1049000008BD0021016301680C3151E8002F22F03D
:10491000100241E80023002BF5D101680A68D20695
:1049200002D50A6849680091818DFDF7BCFFE6E772
:1049300070B5044600680169E26821F440511143F2
:1049400001612169A068E269084361691143084374
:104950002168CA6849F20C639A430243CA6020681E
:104960004169A26921F440711143416131492068D4
:10497000884202D03049884202D1FCF7C1FF01E0F1
:10498000FCF7AEFFE2690023192164253226B2F557
:10499000004F626828D0A0FB0101930F9200FBF743
:1049A000E5FC0146B0FBF5F06FF01802504301EB57
:1049B000800006EB0010B0FBF5F000F0F002B1FB58
:1049C000F5F002EB0012B1FBF5F06FF0180358435D
:1049D00001EB800006EB0010B0FBF5F000F00F00DB
:1049E00021681044886070BDA0FB010192185B41F2
:1049F000FBF7BCFC0146B0FBF5F00201B1FBF5F0A2
:104A00006FF01803584301EB800006EBC000B0FBC9
:104A1000F5F000F0F80002EB4002B1FBF5F058436E
:104A200001EB800006EBC000B0FBF5F000F00700E2
:104A3000D6E70000001001400014014038B5816243
:104A400082850025134604460564222084F83E0032
:104A5000A26B1C48D063A26B1B481064A26B1B485E
:104A6000D064A06B0A4605652168A06B091DFCF7A0
:104A700035FC206801684068009084F83C5020694B
:104A800048B120680C3050E8001F41F4807140E8C4
:104A90000012002AF5D12068143050E8001F41F0C0
:104AA000010140E80012002AF5D12068143050E8D6
:104AB000001F41F0400140E80012002AF5D100201B
:104AC00038BD00006B470008ED470008214700088B
:104AD00038B5274800680168890603D50168406831
:104AE000009040E023490968C9063CD50168406848
:104AF000214A0090106801684FF024030C031F49FD
:104B0000046824F00104046015D410684468C4F1FA
:104B10002404A4B20C8043601068016841F40021B1
:104B200001601068016841F001010160122C1AD186
:104B30001349144815E014686068C0F1240080B27D
:104B40000880636010490B6823F400230B60116830
:104B50000A6842F001020A60122804D10948084993
:104B6000243002F099FABDE838400148FDF7D6BE7E
:104B7000080A002000100140940B002010000020C3
:104B8000581000207A10002040640240F8B51948FF
:104B900000680168184E194DC1F30011002479B165
:104BA000016841680091016840681248FDF77CFE89
:104BB000134800684068C0F1C800287001203070B8
:104BC0000C48FDF7ABFEC8220E490A48FEF77EF9F5
:104BD000307801280AD12C7034700020094902E095
:104BE0000C54401CC0B22A789042F9D3BDE8F8407A
:104BF00002F0BCB94C0A0020090000200800002087
:104C0000F40B002060060020F8B51A48006801681F
:104C1000194E1A4DC1F30011002479B101684168A1
:104C20000091016840681348FDF73EFE1448006893
:104C30004068C0F1C8002870012030700D48FDF7B1
:104C40006DFEC8220F490B48FEF740F93078012865
:104C50000AD12C70347000200A4902E00C54401C28
:104C6000C0B22A789042F9D3BDE8F840064800F077
:104C70005FBD0000900A00200B0000200A00002009
:104C8000540C00202807002064100020FEE703B425
:104C900001984100009850EAC12018BF04204A0D35
:104CA00018BF40F0010040F2FF72B2EB515F08BF45
:104CB00040F00200012808BF052002B07047090734
:104CC000090E002804DB00F1E02080F80014704792
:104CD00000F00F0000F1E02080F8141D7047000084
:104CE00070B5C1482DED020B2DED0E8B82B0119DDC
:104CF00025F000449FEDBEDB9FEDBFEB84423EDB21
:104D0000A4F140511098A1F17F6108430FD0BC4835
:104D1000844202DC28D1109830B39DED100B02B014
:104D2000BDEC0E8B02B0BDE8704000F0B8BC9DED4C
:104D3000100B53EC1D2B51EC100B03F067F99DED9C
:104D4000100B41EC180B53EC1E2B51EC100B03F025
:104D50005DF953EC182B02F07DFE41EC100B02B014
:104D6000BDEC0E8B02B070BD0120FBF7D7FB02B08B
:104D7000BDEC0E8B02B0BDE8704000F0A5BCA148B0
:104D80009FEDA18B844256DA9DED100BB4F1795F53
:104D90000ADA51EC100BFFF77AFF042808BF00F085
:104DA000A3FC9DED100BDAE753EC102B51EC100B2C
:104DB00003F02CF941EC190B95480621B0EE490A95
:104DC000F0EE690A784400F0EEFB53EC192B51EC3D
:104DD000100B03F01BF941EC1A0B8E48B0EE490A98
:104DE000F0EE690A0421784400F0DDFB53EC192B46
:104DF00051EC100B03F00AF953EC182B02F02AFEC9
:104E000041EC100B51EC1A0B53EC102B02F0D6FEB8
:104E1000CDE900019DED000B53EC102B9DED100B27
:104E200051EC100B03F0F2F89DED101B53EC112B1D
:104E300002F010FED2E09DED100B51EC100B00F0D3
:104E400003FD53EC182B03F015FA9FED730BCDE91E
:104E5000000153EC102B9DED000B51EC100B03F0F7
:104E6000D5F841EC190B6E480621B0EE490AF0EE78
:104E7000690A784400F097FB53EC192B51EC100BA6
:104E800003F0C4F841EC1B0B6648B0EE490AF0EEA3
:104E9000690A0421784400F086FB53EC192B51EC8D
:104EA000100B03F0B3F853EC182B02F0D3FD41ECD8
:104EB0001C0B51EC190B02F048F941EC180B5A4845
:104EC0009FED5BABA04222DC53EC1C2B51EC1B0B87
:104ED00002F074FECDE900019DED000B51EC180BC2
:104EE00053EC102B03F092F853EC182B02F0B2FDA8
:104EF00053EC1A2B03F08AF853EC1D2B03F092FAB3
:104F000053EC1E2B03F0B6F941EC100B5FE08DED76
:104F1000008B002000909DED000B51EC180B53EC22
:104F2000102B02F097FD9DED000B41EC1E0B53EC96
:104F3000102B51EC100B03F069F853EC192B03F014
:104F400099F953EC1E2B02F039FE41EC190B53EC8E
:104F50001C2B51EC1B0B02F031FE41EC1B0B53ECF4
:104F60001A2B51EC190B03F051F853EC1D2B03F0E5
:104F700081F941EC190B53EC1A2B51EC180B03F08F
:104F800045F853EC1B2B03F041F853EC192B03F0BD
:104F900049FA9DED000B41EC180B53EC1A2B51EC28
:104FA000100B03F033F89FED249B53EC192B03F007
:104FB00061F941EC100B51EC180B53EC102B03F082
:104FC00031FA53EC192B03F055F941EC100B002D7D
:104FD0003FF7C5AE51EC100B02F0FEFC41EC100B9C
:104FE000BDE60000000000000000F03F00000000EF
:104FF000075C143326A6913C182D4454FB21F93F3D
:105000000000F07F0000E03F000000000000F03FE3
:10501000203A00002E3A0000000000000000E03FAF
:1050200072390000803900003333EF3F0000000088
:105030000000000000000040182D4454FB21E93F0F
:1050400070B59B482DED020B2DED068B079D25F0CD
:105050000044A04218DC9748844202DC0AD106983A
:1050600040B19DED060BBDEC068B02B0BDE8704073
:1050700000F015BB002DCCBF9FED8F0B9FED900B6B
:10508000BDEC068B02B070BD8F48A04215DD8F4885
:10509000A042D8BF4FF0FF3458DD9DED060B51EC18
:1050A000100BFFF7F4FD042808BF00F01DFB9DED79
:1050B000060BBDEC068B02B070BD9DED060B51ECEE
:1050C000100B00F0C1FBCDE9060181489FED828BFA
:1050D000A0423CDD8248A0421FDD00249FED82AB50
:1050E0009DED060B53EC1A2B51EC100B02F0B2FCA9
:1050F0009DED060B41EC190B53EC1A2B51EC100BE8
:1051000002F084FF53EC182B03F08CF953EC192BAD
:1051100002F054FDCDE9060149E09DED060B0124A6
:1051200053EC182B51EC100B02F094FC9DED060B88
:1051300041EC190B53EC182B51EC100B03F072F9E6
:1051400053EC192B02F03AFDCDE906012FE0684837
:10515000A0421FDD02249FED689B9DED060B53ECE2
:10516000192B51EC100B02F051FF53EC182B02F0ED
:1051700071FC9DED060B41EC180B53EC192B51EC17
:10518000100B03F04FF953EC182B02F017FDCDE98B
:1051900006010CE09DED060B032453EC102B9FED54
:1051A000580B51EC100B02F009FDCDE906019DED05
:1051B000060B53EC102B51EC100B02F027FF41ECC7
:1051C000180B53EC182B02F021FF41EC190B4E4841
:1051D0000621B0EE490AF0EE690A784400F0E3F9DE
:1051E00053EC182B51EC100B02F010FF41EC180B94
:1051F0004648B0EE490AF0EE690A0521784400F00D
:10520000D2F953EC192B51EC100B02F0FFFE41ECDC
:10521000100B51EC180B53EC102B002C0EDA02F093
:1052200019FC9DED061B53EC112B02F0EFFE9DEDDA
:10523000061B53EC112B03F01DF835E002F00AFCBD
:105240009DED061B53EC112B02F0E0FE41EC100B20
:105250002F48784400EBC40090ED001B51EC100B7C
:1052600053EC112B03F0DEF89DED061B53EC112BD4
:1052700003F0D8F841EC100B2648784400EBC4004A
:1052800090ED001B51EC100B53EC112B02F0F2FFD0
:1052900041EC100B002DA2BFBDEC068B02B070BD1F
:1052A00051EC100B02F098FB41EC100B01E70000F1
:1052B000000010440000F07F182D4454FB21F93FFA
:1052C000182D4454FB21F9BF0000DC3F0000203EB4
:1052D0000000F33F00000000000000000000F03F6D
:1052E0000000E63F00000000000000000000004059
:1052F0000080034000000000000000000000F83FB4
:10530000000000000000F0BFC23600007836000048
:1053100002360000BA35000070B56F4E2DED040B5B
:105320002DED048B82B0DDF824C0DDE907235C425B
:105330002CF000411C4341EAD474069D22F0004049
:10534000B44205D86C422C4340EAD474B4420BD921
:105350009DED081B9DED060B02B0BDEC048B04B067
:10536000BDE8704000F0A5B9ACF14054A4F17F64F1
:105370001C430BD0022404EAAC7444EAD274054303
:105380009FED578B9FED582B07D015E09DED060B39
:1053900051EC100B00F0C3F942E0002C11BF012CBE
:1053A0009DED060B02B0BDEC048B04BF04B070BDD4
:1053B000022C38D0032C3BD00B439FED4D1B9FEDAF
:1053C0004E0B0AD0B14218D1B04209D121F0804130
:1053D00020F08040099107900FE0002A15DA10E0D4
:1053E000474B7B44002C08BF93ED000B0DD0012CE4
:1053F00010D0022C17D0032C1AD0B0421DD1002A95
:1054000003DAB0EE410AF0EE610A02B0BDEC048BA3
:1054100004B070BD93ED000B51EC100B02F0DCFA00
:1054200041EC100BF1E7B0EE480AF0EE680AECE749
:10543000B0EE420AF0EE620AE7E7401A00159FED6F
:10544000329B3C28C8BF8DED000B17DCBCF1000F70
:10545000BCBF10F13C0F8DED009B0FDB9DED080BE9
:1054600053EC102B9DED060B51EC100B02F0A6FB3C
:1054700000F0EAF900F053F9CDE90001B4B1012CD4
:1054800010D0022C9FED220B53EC102B9DED000B46
:1054900051EC100B19D002F0C5FF53EC182B02F0A1
:1054A000C1FFBDE7019880F0004001909DED000B29
:1054B00053EC192B51EC100B02F0D8FC04BF022066
:1054C000FBF72CF89DED000B9FE702F0ABFF53ECD0
:1054D000182B02F0CFFEA3E70000F07F00000000D1
:1054E000182D4454FB210940182D4454FB2109C0B8
:1054F000182D4454FB21F9BF182D4454FB21F93FCA
:10550000EA3400000000000000000000000000007D
:10551000075C143326A6A13C2DED020B019820F068
:10552000004001909DED000B02B0704700B52DEDDD
:10553000048BB0EE409AF0EE609A83B051EC190BF8
:1055400002F0A4FE41EC180B18EE100A18EE901AA7
:105550008DED008B002818BF0120084320F000408B
:10556000C0F17F6000F1E040C00F14D019EE101AB6
:1055700019EE900A8DED009B002918BF0121084308
:1055800020F00040C0F17F6000F1E040C00F04BF98
:105590000120FAF7C3FFB0EE480A03B0F0EE680A44
:1055A000BDEC048B00BD70B504462DED028B4D1E85
:1055B00000EBC500B0EE408AF0EE608A90ED000B83
:1055C00035F0060017D053EC182B51EC100B02F0FD
:1055D0001DFD41EC100B6D1E04EBC50090ED001B92
:1055E00051EC100B53EC112B02F034FA41EC100B80
:1055F00035F00600E7D1022D36D0042D1CD0062D43
:105600001CBFBDEC028B70BD53EC182B51EC100B82
:1056100002F0FCFC94ED0A1B53EC112B02F01AFA79
:1056200053EC182B02F0F2FC94ED081B53EC112BF9
:1056300002F010FA41EC100B53EC182B51EC100B4C
:1056400002F0E4FC94ED061B53EC112B02F002FA7D
:1056500053EC182B02F0DAFC94ED040B53EC102BF6
:1056600002F0F8F941EC100B53EC182B51EC100B35
:1056700002F0CCFC94ED021B53EC112B02F0EAF982
:1056800053EC182B02F0C2FC94ED001B53EC112BD1
:1056900002F0E0F9BDEC028B41EC100B70BD10B5CF
:1056A00053EC102B51EC100B02F0D4F941EC100B21
:1056B00010BD10B553EC112B51EC100B02F0CAF9D0
:1056C00041EC100B10BD00009FED050B10B553EC25
:1056D000102B51EC100B02F071FA41EC100B10BDC5
:1056E00000000000000000009FED050B10B553EC1A
:1056F000102B51EC100B02F089FC41EC100B10BD8B
:10570000000000000000001010B500F0A9F800F043
:10571000E9F800F049F9BDE8104000F0A7B910B56C
:1057200041EC100BFFF78CFC51EC100B10BD00008E
:105730000C49B1F809200280B1F80B20428011F821
:10574000012F82804A78C2808A780281CA78428199
:105750000A7982814A79C2818A890282C989418211
:1057600070470000280700200D4A10B5401E106049
:10577000481E121D1060084602F0F8FB9FED091B41
:1057800053EC112B02F042FC02F0ACFB04490C314B
:105790000860BDE8104000210448FDF715B800007E
:1057A00028180040000000000000E03F180600201C
:1057B00000B58BB000200121CDE9060108910090D1
:1057C0000190029003900590049069460C48FAF706
:1057D000C3FF0B48FBF7BAFB02210948FAF7A9FF00
:1057E0000E200990059069460648FAF7B5FF05486E
:1057F000FBF7ACFB02210348FAF79BFF0BB000BD9F
:1058000008040020300400200C499FED0D0B0020FF
:1058100001EB0012401C82ED020B82ED000B04280C
:10582000F6DB06490020403101EB0012401C82EDFE
:10583000020B82ED000B0828F6DB7047D01E00201B
:10584000000000000000000082B0CDE9000121F05E
:10585000004001909DED000B02B051EC100B704721
:1058600070B586B014216846FAF729FE1B4800255A
:10587000016841F001010160016801F00101059139
:10588000016841F010010160016801F0100105910B
:10589000016841F0800101600068114E00F0800055
:1058A0000590002230213046FBF78AFE01210324B7
:1058B0001020CDE90214CDE9000169463046FBF71E
:1058C00065FD2020009011200394CDE90105694673
:1058D0003046FBF75BFD06B070BD0000303802407B
:1058E0000010024070B586B014216846FAF7E7FD53
:1058F0001C480025016841F001010160016801F0C8
:1059000001010591016841F010010160016801F099
:1059100010010591016841F0800101600068124E9C
:1059200000F08000059000224FF482513046FBF7D2
:1059300047FE01210324B014CDE90214CDE9000192
:1059400069463046FBF722FD402000901120039469
:10595000CDE9010569463046FBF718FD00F006F871
:1059600006B070BD303802400010024010B50D4C3A
:10597000002240212046FBF723FE2820FAF7C7FE2D
:10598000012211032046FBF71BFE2820FAF7BFFE79
:10599000012240212046FBF713FEBDE810402820DD
:1059A000FAF7B5BE00100240F0B587B01421684682
:1059B000FAF785FD1A480024016841F004010160EE
:1059C000016801F004010591016841F002010160E4
:1059D0000068144D00F0020005902246042128467C
:1059E000FBF7EEFD104E002201213046FBF7E8FDEB
:1059F00001210327CDE90217009101916946304644
:105A0000FBF7C4FC0420009001AA112082E8910059
:105A100069462846FBF7BAFC00F008F807B0F0BD6D
:105A200030380240000802400004024010B50D4C1E
:105A3000002204212046FBF7C3FD2820FAF767FE69
:105A4000012211460848FBF7BBFD2820FAF75FFE4C
:105A5000012204212046FBF7B3FDBDE810402820B9
:105A6000FAF755BE0008024000040240F0B587B0C6
:105A700014216846FAF723FD1B480025016841F010
:105A800004010160016801F004010591016841F021
:105A9000020101600068154E00F0020005902A46E0
:105AA00008213046FBF78CFD114F002202213846B9
:105AB000FBF786FD0220009001200324CDE90204BB
:105AC000019069463846FBF761FC082000901120E0
:105AD0000394CDE9010569463046FBF757FC00F019
