:020000040800F2
:10000000286500204D0300083355000831490008D9
:100010003155000875170008516C000800000000F9
:100020000000000000000000000000008D02000839
:10003000B91F000800000000E9020008195C000870
:1000400067030008670300086703000867030008E8
:100050006703000867030008BB1F0008C91F0008EA
:10006000CF1F000867030008670300086703000844
:10007000D91E000867030008E51E00086703000892
:1000800067030008F11E0008670300086703000803
:100090007917000867030008670300086703000872
:1000A0006703000867030008670300086703000888
:1000B0006703000867030008670300086703000878
:1000C0006703000867030008670300086703000868
:1000D00067030008896A000867030008456B000889
:1000E000C11F0008670300086703000867030008D2
:1000F000B55F00086703000867030008670300088E
:100100006703000867030008670300086703000827
:100110006703000867030008670300086703000817
:1001200067030008FD1E0008091F00086703000898
:1001300067030008670300086703000867030008F7
:100140001518000867030008670300086703000824
:10015000670300086703000867030008CD6B000809
:1001600067030008670300086703000867030008C7
:100170006703000867030008670300080000000029
:10018000670300086703000859650008D565000883
:100190006703000867030008670300086703000897
:1001A00000000000000000006703000800F002F8F3
:1001B00000F05CF80AA090E8000C82448344AAF1A5
:1001C0000107DA4501D100F051F8AFF2090EBAE8A3
:1001D0000F0013F0010F18BFFB1A43F0010318477B
:1001E00068A7000088A700000A4410F8014B14F02B
:1001F0000F0508BF10F8015B240908BF10F8014B78
:100200006D1E05D010F8013B6D1E01F8013BF9D1C0
:10021000641E03D0641E01F8015BFBD19142E4D35C
:10022000704700000023002400250026103A28BF54
:1002300078C1FBD8520728BF30C148BF0B60704758
:1002400066290AF02E82642900F02E810020704772
:100250001FB50AF01CFA00F015FD04000020002173
:1002600009F04EFBE0601FBD10B510BD00F00EFEA2
:100270001146FFF7EDFF08F08DF900F02CFE03B4F6
:10028000FFF7F2FF03BC00F06FFE00002C4B196873
:100290000868B0E8F04F80F30988BFF36F8F4FF024
:1002A000000080F3118870470000000008480068D3
:1002B000006880F308884FF0000080F3148862B66D
:1002C00061B6BFF34F8FBFF36F8F00DF00BF00BF7A
:1002D00008ED00E0DFF80C00016841F470010160F6
:1002E000704700BF88ED00E0EFF30980BFF36F8F28
:1002F000134B1A681EF0100F08BF20ED108A20E97A
:10030000F04F106009B44FF0500080F31188BFF334
:100310004F8FBFF36F8F09F02BF94FF0000080F380
:10032000118809BC19680868B0E8F04F1EF0100F7A
:1003300008BFB0EC108A80F30988BFF36F8F704755
:10034000CC010020EFF3058070470000094880478A
:1003500009480047FEE7FEE7FEE7FEE7FEE7FEE7A7
:10036000FEE7FEE7FEE7FEE704480549054A064BBF
:1003700070470000D55C0008AD010008285F002030
:1003800028650020286100202861002053EA020C23
:1003900000F069802DE9F04B4FF00006002B1FBFE5
:1003A000B3FA83F503FA05F424FA05F65E4012BFAA
:1003B0001643B2FA82F502FA05F4C5F120051EBF14
:1003C00022FA05FC44EA0C04203556EA044C4FEAB4
:1003D000144418BF641C4FF000084FF0000990420D
:1003E00071EB030C39D3002919BFB1FA81F701FA77
:1003F00007F6B0FA80F700FA07F6C7F120071EBF2C
:1004000020FA07FC46EA0C062037B6FBF4FCA7EB03
:100410000507103F07F01F0BCBF120060CFA0BFB72
:100420002CFA06F644BFB3460026202FA4BF5E4632
:100430004FF0000B5BEA060C08BF4FF0010B19EB05
:100440000B09ABFB027C48EB0608C01B06FB02CC89
:100450000BFB03CC71EB0C01C1E70B460246414696
:100460004846BDE8F08B13B54FF000004FF0000197
:10047000AFF30080BDE81C40704700000FB41CB50E
:10048000084B06AA7B4469460090059800F0E1FB02
:1004900004460020694600F0EFFB20461CBC5DF8D6
:1004A00014FB0000F10700002DE9F041064600248E
:1004B00010687529314616A510D0AFF300800028CA
:1004C00002DA404213A507E031688A0701D512A578
:1004D00002E0490704D511A5012401E0AFF3008033
:1004E00000210A2206F1240709E0B0FBF2FCB0FB70
:1004F000F2F302FB1C00303078541846491C0028E7
:10050000F3D123462A463046BDE8F04100F033B926
:10051000000000002D0000002B0000002000000063
:100520002DE9F05F894604464FF0000ADFF874B108
:10053000FB44C0F820A02046E1688847002874D01A
:10054000252806D0D4E901219047206A401C20626A
:10055000F1E700265F462046E168884720280546E7
:1005600007DB312D05D2781910F8200C08B10643AD
:10057000F1E7B00701D526F00406C4F81CA0002757
:10058000C4F818A02A2D09D0284607F0A1F838B3DE
:1005900004EB8708303DC8F8185019E059F8041BDF
:1005A000204604EB87029161E1688847012F0546E8
:1005B00018D1E069002820DA26F020061DE0D8F8DE
:1005C000180000EB800005EB40003038C8F8180038
:1005D0002046E1688847054607F07AF80028EED102
:1005E000012F0AD02E2D08D12046E16888477F1CB4
:1005F0000546022F46F02006C4DBA069002803DA76
:10060000404246F00106A061F00701D026F0100636
:100610006C2D0BD0682D09D04C2D39D06A2D35D0DA
:10062000742D35D07A2D33D016E038E0E1682F46AE
:1006300020468847B842054609D16C2F26D04FF492
:100640008060E168064320468847054604E06C2F39
:100650001AD04FF4807006430DB3A5F1410019285C
:1006600002D8203546F400664A46294620462660D0
:100670004E46FFF7E5FD80B101280BD0F61D26F0B0
:10068000070000F1080956E74020E4E78020D8E79A
:100690000020D6E706F104094DE7284652E7206A14
:1006A000BDE8F09F6CA2000010B5203AC0F00B80AE
:1006B000B1E81850203AA0E81850B1E81850A0E866
:1006C0001850BFF4F5AF5FEA027C24BFB1E81850C0
:1006D000A0E8185044BF18C918C0BDE810405FEA30
:1006E000827C24BF51F8043B40F8043B08BF7047AC
:1006F000D20728BF31F8023B48BF11F8012B28BFB1
:1007000020F8023B48BF00F8012B70474FF0000271
:1007100000B5134694469646203922BFA0E80C50F7
:10072000A0E80C50B1F12001BFF4F7AF090728BFD2
:10073000A0E80C5048BF0CC05DF804EB890028BF4E
:1007400040F8042B08BF704748BF20F8022B11F077
:10075000804F18BF00F8012B7047704770477047F3
:1007600010B500F093FA006810BD10B5044600F013
:100770008DFA046010BD2DE9F0470D46994692466A
:10078000044600F124080168880604D5E06921F0D8
:100790001001216000E00120A84201DD471B00E0BC
:1007A0000027A1697A1902EB0900081AA0612078D4
:1007B000C00602D42046AFF30080002608E0D4E94A
:1007C00001211AF806009047206A401C761C20621E
:1007D0004E45F4DB2078C0060AD52046AFF30080F2
:1007E00006E0D4E9012130209047206A401C2062B5
:1007F000381EA7F10107F4DC07E0D4E9012118F85D
:1008000005009047206A401C2062281EA5F10105C2
:10081000F3DC2046AFF300802078000602D50220EA
:10082000BDE8F0870120FBE770472DE9FF4F0C463C
:100830001E464FF0FF378BB0D2E90001DDF8608033
:100840000A908A46C1F30A5505B93D46002108467B
:100850004FF00000BAF1000F00F4400005DA00EBA1
:1008600080004FF4400101EA50004FEA9059B9F17D
:10087000010F00DDB9460A9850EA4A000ED044F64E
:100880001050A5F2FF3545432F14B8F1000F1ED0CC
:100890007542291E1EDDC9F100021CE0B8F1010FEE
:1008A0004FF0000001D0302103E0F24305E0215475
:1008B000401CB042FBDB30460022002121540B9942
:1008C000C1F80880C1E900200FB0BDE8F08FBD1B62
:1008D0006D1CDEE74A4600DA694206A800F060FABD
:1008E00006AB93E8070003AB83E8070050460A997C
:1008F00000F041FB8DE80700A0F500501F38009084
:100900000398002D0ADD42F21F014A4608440023E5
:1009100003A90390684600F0AAFD09E0A0F5005085
:100920004A461F38002303A90390684600F0B4FD2F
:100930008DE807000004000C03D04FF0FF304108A1
:1009400000E01046B8F1000F03D0002200921546D7
:100950001EE0751E05D400F09DF9303262556D1E03
:10096000F9D5B3460122084302D000227F1C04E0DF
:100970002078302801D100227F1E002A099784D0D8
:100980001DE0112D07DA00F085F9303262556D1C3B
:1009900050EA0102F5D1084302D00098C8B10EE038
:1009A0000021681E05E0235C625C63542254401EF3
:1009B000491C8142F7DBAB46A81B401E0990002072
:1009C00004F80B000B98099AC0F80880C0E9002BC6
:1009D0007AE711264FF0000857E72DE9F04F8846D7
:1009E0000446D21D22F0070191B0D1E90001CDE902
:1009F0000A0106F02EF902460B98C00F01D02D20F7
:100A000007E02068810701D52B2002E0202101EAC0
:100A1000C000032A099001D0072A05DB034641469E
:100A2000204600F07DF90BE12078800601D5E069D1
:100A300000E00620B8F1650F814606D0B8F1660FD8
:100A400018D0B8F1670F70D131E00020B9F1110F63
:100A5000009001DB112301E009F101030AAA01A9B9
:100A60000CA8FFF7E2FEDDE90C70002609F1010594
:100A7000834647E001204B4600904FF000470AAA0A
:100A800001A90CA8FFF7D1FEDDE90DB00C995D4678
:100A9000002610B909F101000D18B9EB050003D4C7
:100AA000C0F1FF3609F10105A5EB09002BE0B9F112
:100AB000010F01DA4FF001090020B9F1110F009088
:100AC000484601DD112300E003460AAA01A90CA84B
:100AD000FFF7ABFEDDE90C704D460026834620781B
:100AE00000070AD4AB4500DA5D4601A8012D04DDFC
:100AF000411911F8011C302907D04F4502DA17F1CE
:100B0000040F04DA012082460FE06D1EEEE7002F8D
:100B100002DCED1B3E4403E0781CA84200DD7D1C96
:100B2000B81B00F1010A4FF000472078000703D4FA
:100B3000AA4501DB4FF0FF3A0021B7F1004F0DF15C
:100B400043088DF8431024D002202B23002F01DA14
:100B50007F422D230A21021EA0F1010000DC5FB1BB
:100B600097FBF1FC97FBF1F201FB1C7C17460CF1A3
:100B7000300C08F801CDEEE7A8F1010003702188E0
:100B8000090501D5452100E06521A0F1010800F823
:100B9000011C09980FA9A1EB0807FF1D00B1012056
:100BA000411901EBEA70A1693844081A401EA0619E
:100BB0002078C00602D42046AFF30080099828B1FF
:100BC000D4E901219047206A401C20622078C006A9
:100BD00022D52046AFF300801EE0002E04DBB34593
:100BE00002DD01A8805D00E03020D4E901219047BA
:100BF000206A401C2062761CAAF101005FEA000A0C
:100C00000AD100F03FF8C0680168405CD4E90121D6
:100C10009047206A401C2062281EA5F10105DCDCFB
:100C200007E0D4E9012118F8010B9047206A401C25
:100C30002062381EA7F10107F3DC2046AFF30080E5
:100C4000032011B041E6000001694A1C02610878E6
:100C5000704700B58FB0CDE90131002105910549FC
:100C60007944CDE9031011466846FFF759FC0FB0EF
:100C700000BD0000E5FFFFFF0A6802F8010B0A60F3
:100C80007047000000487047E85E00200048704749
:100C9000C85E002030B5B0F10A024FEA900E71F143
:100CA00000034EEA817EB0EB0E0061EB91014FEA4A
:100CB000101E4EEA017E10EB0E0041EB11114FEABF
:100CC000102E4EEA016E10EB0E0041EB11214FEA9F
:100CD000104E4EEA014E10EB0E0041EB1141401850
:100CE00041F100014FEAD00040EA41704FEAD101E2
:100CF00010EB80054FEA810444EA907444EB010450
:100D00006D1944EB0404521BA3414FF0000348BF8C
:100D10000A3200D530BD401C41F1000130BD000059
:100D20002DE9F0411F46044603260168072A01F415
:100D3000006004DB08B116A505E016A503E008B1C4
:100D400015A500E015A521F010002060A069C01EC7
:100D5000A0610FB1401EA0612046AFF300804FB1EB
:100D6000D4E9012138469047206A401C2062C01C0B
:100D7000206206E0206AFAE7D4E9012115F8010BA8
:100D80009047761EF8D22046AFF30080BDE8F08190
:100D90004E414E006E616E00494E4600696E66001F
:100DA0002DE9F047814616468AB0354878440DC88B
:100DB0008DE80D0032487844801C03AC0DC884E8EF
:100DC0000D0041F69B300844372190FBF1F290FB77
:100DD000F1F5A5F1800501FB12041B3C02D564422C
:100DE000012000E00020DFF898A080460027FA44A8
:100DF000AAF1BE0A0EE0E0070AD03246684607EBC9
:100E0000470101230AEB810100F046FB8DE8070052
:100E100064107F1C002CEED1194F7F44AE3F19E0C7
:100E2000E80715D007EB04100DF1180A90E80E0042
:100E30008AE80E00C068F04201D198190890324645
:100E4000012306A903A800F027FB03AB83E80700F2
:100E50006D10641C002DE3D14FF00103324669464A
:100E6000B8F1000F03A802D000F001FB01E000F090
:100E700013FBC9E90001C9F808200AB0BDE8F087F2
:100E8000749B000000487047C85E00207546FFF75D
:100E9000F9FFAE4605006946534620F00700854637
:100EA00018B020B5FFF760FABDE820404FF000060B
:100EB0004FF000074FF000084FF0000B21F0070142
:100EC000AC46ACE8C009ACE8C009ACE8C009ACE885
:100ED000C0098D46704710B50446AFF30080204628
:100EE000BDE81040FFF7CBB94FF0013C50F8042BA0
:100EF00051F8043B9A4221D1A2EB0C03934313EA2D
:100F0000CC1317D150F8042B51F8043B9A4215D159
:100F1000A2EB0C03934313EACC130BD150F8042B30
:100F200051F8043B9A4209D1A2EB0C03934313EA14
:100F3000CC13DBD04FF00000704700BFD01A01BACD
:100F4000B1FA81F101F0180122FA01F0CB40C1F1B0
:100F50002001DBB2C0B2C01A2CFA01F3D11A9143BE
:100F600011EAC311E6D1704701491820ABBEFEE774
:100F70002600020070475FEA400C08BF91F0000FA6
:100F80004FEA8C234FEAC12243EA51514FEA1C50E9
:100F900018BF00F5F0404FEA300018BF41F00041A3
:100FA0005FEA6C5C00F02980BCF1FF3F08BF40F0B5
:100FB00080407047130C06BF12044FF0100C4FF026
:100FC000000C130E04BF12020CF1080C130F04BF27
:100FD00012010CF1040C930F04BF92000CF1020CEF
:100FE000D30F04BF52000CF1010C11464FF0000268
:100FF000A0F11F00A0EB0C00704711F0004F08BFDC
:10100000704731F000413FF4D5AF0B0C06BF090427
:101010004FF0100C4FF0000C0B0E04BF09020CF146
:10102000080C0B0F04BF09010CF1040C8B0F04BF5B
:1010300089000CF1020CCB0F04BF49000CF1010C2C
:10104000CCF12003A0EB0C0022FA03F302FA0CF21D
:1010500041EA030100F10100704720F07F4C80EA73
:10106000030023F07F47ACEB070303F57C5300F04C
:10107000004003F1FF032DE980494FEA154B09B405
:101080004FEA144325EA0B4E24EA03480FF20426E4
:1010900006EB132749083E785FEA320203FB066736
:1010A000C7F5000707FB06F64FEA54374FEAD64666
:1010B00006F1020607FB066CCCF1005C4FEA1C4708
:1010C0002CEA074C07FB06F40CFB06F504EB15466F
:1010D0004FEA961634BF00204FF000404FEAD13758
:1010E00006FB07FC4FEA1C4C0CFB0BF7D21B03FB67
:1010F0000CF761EB07010CFB0EF7B0EB074072EB4E
:1011000017420CFB08F734BFA2EB0742B2EB0742D1
:1011100061EB17414FEA0C444FEA910706FB07FCCD
:101120004FEA1C4C0CFB0BF7B0EBC74072EB57328D
:1011300003FB0CF734BFA2EBC742B2EBC74261EB33
:1011400057310CFB0EF7B0EBC70072EB57720CFB7C
:1011500008F734BFA2EBC702B2EBC70261EB5771CD
:10116000039F4FEA816141EA921104EBCC044FEAFC
:10117000D1374FEA826206FB07FC42EA90124FEA3F
:1011800080604FEA1C4C0CFB0BF7D21B03FB0CF7E7
:1011900061EB07010CFB0EF7B0EB074072EB174257
:1011A0000CFB08F734BFA2EB0742B2EB074261EB3E
:1011B00017414FEA8C554FEA910704EB9C2406FB3C
:1011C00007FC4FEA1C4C0CFB0BF7B0EBC74072EB73
:1011D000573203FB0CF734BFA2EBC742B2EBC74256
:1011E00061EB57310CFB0EF7B0EBC70072EB577297
:1011F0000CFB08F734BFA2EBC702B2EBC70261EBEE
:10120000577115EB4C254FEA816141EA92114FEA83
:1012100082624FEAD13742EA901206FB07FC44F1A2
:1012200000044FEA80604FEA1C4C0CFB0BF7D21B0A
:1012300003FB0CF761EB07010CFB0EF7B0EB07406B
:1012400072EB17420CFB08F734BFA2EB0742B2EB7C
:10125000074261EB174115EB1C154FEA813141EA5A
:1012600092414FEA823242EA90424FEA80304FEA9E
:101270000C7644F1000448EA03434EEA0B484FF071
:10128000000EB2EB080C71EB030724BF624639462F
:101290004EEB0E0E4FF0000B0018524149414BEB44
:1012A0000B0BB2EB080C71EB03077BF1000B24BFB7
:1012B000624639464EEB0E0E4FF0000B00185241BD
:1012C00049414BEB0B0BB2EB080C71EB03077BF1C5
:1012D000000B24BF624639464EEB0E0E51EA020760
:1012E00018BF46F0010616EB0E7655F1000254F1D8
:1012F000000103D5BDE88901BDE80088BDE889018A
:10130000BDE80048B619524141EB0101A3F10103C8
:10131000704780807F7E7D7C7B7A79787776767562
:101320007473727171706F6E6E6D6C6C6B6A6A69DA
:101330006868676666656464636362616160605F74
:101340005F5E5E5D5D5C5C5B5B5A5A5959585857ED
:101350005756565555555454535352525251515055
:1013600050504F4F4F4E4E4D4D4D4C4C4C4B4B4BA8
:101370004A4A4A49494948484847474747464646EE
:101380004545454444444443434343424242424129
:101390004141002B9C4630D477002BD01CB54FEA3E
:1013A000370703B44FF010004FF01001BAF1000FEF
:1013B00006D0BCF1000FDCBF40F0080040F008018F
:1013C0004FF000000FBCBDE810400BF1010BBBF16A
:1013D000010F08BF5FEA170722BF12F1010211F1E6
:1013E00001014FF0004143F1000300F0004043EAE7
:1013F00000007047F9D35708D0E746EA064613F1D4
:10140000400F4FEA16461FDD13F1200FDFBF1643D2
:101410000A46002120335B42BED0C3F1200746EAD2
:10142000064602FA07F74FEA164646EA0706C3F1F0
:10143000200722FA03F201FA07F721FA03F14FF02D
:10144000000342EA0702A7E746EA020646EA064622
:101450004FEA164646EA0106BCBF46EA0646360C87
:101460004FF000034FF000024FF0000194E72DE928
:10147000804C9A46934670B491E8380007C831EA28
:10148000400C48BF34EA430C03D5FFF7E6FDFFF7F5
:1014900080FFF0BCBDE8008C2DE9804C9A46934655
:1014A00070B491E8380007C810F0804F08BF13F0FF
:1014B000804F03D100F005F8FFF76BFFF0BCBDE8EB
:1014C000008C20F07F4780EA030023F07F4C07EB7D
:1014D0000C03A3F57C5300F00040A3F1FE0392F04F
:1014E000000F00F0B38095F0000F00F077802DE939
:1014F00001494FEA11404FEA144621EA004800FB37
:1015000006FC24EA064708FB06F607FB08F800FB82
:1015100007F718EB06484CEB164C4FEA124B18EB4A
:1015200007484FEA15464CEB174022EA0B4E0BFBDF
:1015300006FC25EA06470EFB06F607FB0EFE0BFB34
:1015400007F71EEB064E4CEB164C4FF000061EEB59
:10155000074E4CEB174B18EB0B0840F1000018EB53
:101560000E0B58EB000840F100008F1A4FF00001FD
:101570003CBFC943661B14BFB5EB040C00213CBF44
:10158000C943F61B4FEA17444EEA8E0E27EA04457C
:101590004FEA1C4704FB07622CEA074C05FB07F7E0
:1015A0000CFB05F604FB0CFC16EB074642EB17425E
:1015B00016EB0C4642EB1C421BEB060658EB0202F4
:1015C000414146EA9E0601D5BDE80189B61952415E
:1015D00041EB0101A3F10103BDE801894FEA144584
:1015E0004FEA114724EA054621EA074C05FB07F4B8
:1015F00006FB07F70CFB06F105FB0CFC11EB0741A2
:1016000044EB17444FEA124711EB0C4144EB1C44E6
:1016100022EA074C05FB07F206FB07F70CFB06F670
:1016200005FB0CFC16EB074642EB174216EB0C468B
:1016300042EB1C456A1854F1000148BF7047B619C7
:10164000524141EB0101A3F10103704795F0000FF6
:1016500037D04FEA11424FEA144721EA024624EA02
:10166000074C02FB07F106FB07F70CFB06F402FB35
:101670000CFC14EB074441EB17414FEA154714EB00
:101680000C4441EB1C4125EA074C02FB07F506FB25
:1016900007F70CFB06F602FB0CFC16EB074645EBC6
:1016A000174516EB0C4645EB1C42121951F100018F
:1016B00048BF7047B619524141EB0101A3F1010344
:1016C00070474FEA14454FEA114724EA054621EADC
:1016D000074C05FB07F106FB07F70CFB06F24FF082
:1016E000000605FB0CFC12EB074241EB174112EB25
:1016F0000C4251EB1C4148BF7047921841EB01016D
:10170000A3F1010370470000054C00BF05F0E7FF9F
:10171000606907F099FE012007F052F9F6E7000032
:10172000B001002070B58AB0282210496846FEF743
:10173000BBFF0A2000246D4600EBD0760DE000BF11
:1017400035F83400C82180B205F0F8FF05EBC4007D
:101750004068800001F0BAFA641CB4EB660FEFDB5E
:101760000349002008600AB070BD00000CA7000803
:1017700034180040FEE70000014800F0A8BD00005A
:101780008804002038B50E4C4FF400752560002504
:10179000A560E560082525610A4C050A2570607082
:1017A000080AA070E170100A20716271180AA07115
:1017B000E3716B4622460249034800F01EFC38BD27
:1017C000480E0020500000208804002038B50E4C40
:1017D00040F2FF1525600025A560E560082525611C
:1017E0000A4C050A25706070080AA070E170100AA2
:1017F00020716271180AA071E3716B46224602499A
:10180000034800F0FAFB38BD600E002058000020AD
:1018100088040020014800F05ABD0000B0040020F8
:1018200038B50E4C4FF4007525600025A560E560C5
:10183000082525610A4C050A25706070080AA07009
:10184000E170100A20716271180AA071E3716B4691
:1018500022460249034800F0D0FB38BD780E002034
:1018600060000020B004002038B50E4C40F2FF1597
:1018700025600025A560E560082525610A4C050A5C
:1018800025706070080AA070E170100A2071627102
:10189000180AA071E3716B4622460249034800F022
:1018A000ACFB38BD900E002068000020B004002082
:1018B00038B50E4B40F2FF2408251C6000249C60C4
:1018C000C3E903450A4B050A1D705870080A987051
:1018D000D970100A18715A719C71DC716B46044AF8
:1018E0000249044800F089FB38BD0000A80E002022
:1018F00070000020880400202DE9F05FDFF800C4AC
:101900000A9D0CF110048CE80F0084E80F00FD48DC
:10191000FD4F6F2D0ED007F51871702D48D0DFF8F0
:10192000EC9301F5187A792D7ED07A2D7DD0D32DC8
:101930007CD0DAE00026E0464FEA000958F826009D
:1019400006EB860100EE100A09EBC100B0F91000A9
:10195000F8EEC00A00EE100A06EB460000EB061097
:1019600007EB8000B8EEC00A816C8847761C042E15
:10197000E4DB97ED430ABDEEC00A10EE100A97EDC6
:10198000300A03B2BDEEC00A10EE100A97ED1D0A30
:1019900002B2BDEEC00A10EE100A97ED0A0A01B2BB
:1019A000BDEEC00A10EE100A00B2FFF7EBFE42E2F5
:1019B000DFF85CB30024E14680468A4604EB8401EC
:1019C0000BEB041008EBC10590ED000B95ED021B2D
:1019D00053EC102B51EC110B08F0FEFCCC4EC03632
:1019E00006EBC406C6E9000107F0ACFF00EE100AE2
:1019F00059F8240000EE900A04EB440000EB0416B2
:101A00000AEB8600F8EEE00A816C8847B5F9100011
:101A1000F0EE400A00EE100A07EB8600816CB8EE8B
:101A2000C00A8847641C02E022E061E0AFE0042CB9
:101A3000C4DB97ED430ABDEEC00A10EE100A97ED25
:101A4000300A03B2BDEEC00A10EE100A97ED1D0A6F
:101A500002B2BDEEC00A10EE100A97ED0A0A01B2FA
:101A6000BDEEC00A10EE100A00B2FFF78BFE28E2AE
:101A70000426E3464FEA00080BEB860006EB8601DE
:101A800010ED040A08EBC100B0F91000F8EEC00A2E
:101A900000EE100A06EB460000EB061007EB800094
:101AA000B8EEC00A816C8847761C082EE4DB97EDFF
:101AB0008F0ABDEEC00A10EE100A97ED7C0A03B241
:101AC000BDEEC00A10EE100A97ED690A02B2BDEE33
:101AD000C00A10EE100A97ED560A01B2BDEEC00A18
:101AE00010EE100A00B2FFF771FED42D7ED04BE04D
:101AF0000426BB46834806EB860100EBC10898ED3F
:101B0000020B51EC100B07F01DFF00EE100A7C4891
:101B100000EB860050ED040A06EB460000EB0617CA
:101B20007C48F8EEE00A00EB8700816C8847B8F942
:101B30001000F0EE400A00EE100A0BEB8700816CFB
:101B4000B8EEC00A8847761C082ED3DB9BED8F0ABF
:101B5000BDEEC00A10EE101A9BED7C0A0BB2BDEE72
:101B6000C00A10EE101A9BED690A0AB2BDEEC00A57
:101B700010EE101A9BED560A09B2BDEEC00A10EE27
:101B8000100A00B2FFF722FEDD2D7DD03DE00026D9
:101B90004FEA0A0754F8260006EB860100EE100A09
:101BA00009EBC100B0F91000F8EEC00A00EE100A0F
:101BB00006EB460000EB061007EB8000B8EEC00A0B
:101BC000816C8847761C042EE4DB97ED430ABDEE5A
:101BD000C00A10EE100A97ED300A03B2BDEEC00A3B
:101BE00010EE100A97ED1D0A02B200E010E0BDEE03
:101BF000C00A10EE100A97ED0A0A01B2BDEEC00A43
:101C000010EE100A00B2FFF70BFEDE2D77D04CE08D
:101C1000CB46DFF80491002606EB86010BEBC107EB
:101C200097ED020B51EC100B07F08CFE00EE100A42
:101C300054F8260000EE900A06EB460000EB06186A
:101C400009EB8800F8EEE00A816C8847B7F91000CC
:101C5000F0EE400A00EE100A0AEB8800816CB8EE44
:101C6000C00A8847761C042ED6DB9AED430ABDEEE7
:101C7000C00A10EE101A9AED300A0BB2BDEEC00A7F
:101C800010EE101A0AB200E054E09AED1D0ABDEE03
:101C9000C00A10EE101A9AED0A0A09B2BDEEC00A87
:101CA00010EE100A00B2FFF7BBFDA5F56B40293816
:101CB00075D11A4F1A4E042504EB850010ED040A65
:101CC00007EB4510B0F90C00F8EEC00A00EE100A60
:101CD00005EB450000EB051006EB8000B8EEC00AEE
:101CE000816C88476D1C072DE6DB96ED7C0ABDEE06
:101CF000C00A10EE100A96ED690A02B212E04FE037
:101D000090010020200F00205013002060100020C0
:101D1000F8200020B0150020701A0020A01100202B
:101D2000D01C0020BDEEC00A10EE100A96ED560A37
:101D300001B2BFE00426574604EB860006EB86019D
:101D400010ED040A09EBC100B0F91000F8EEC00A6A
:101D500000EE100A06EB460000EB061007EB8000D1
:101D6000B8EEC00A816C8847761C082EE4DB97ED3C
:101D70008F0ABDEEC00A10EE100A97ED7C0A03B27E
:101D8000BDEEC00A10EE100A97ED690A02B2BDEE70
:101D9000C00A10EE100A97ED560A01B244E04AE07C
:101DA000CB46DFF82891042606EB86010BEBC10831
:101DB00098ED020B51EC100B07F0C4FD00EE100A79
:101DC00004EB860050ED040A06EB460000EB061714
:101DD00009EB8700F8EEE00A816C8847B8F910003B
:101DE000F0EE400A00EE100A0AEB8700816CB8EEB4
:101DF000C00A8847761C082ED6DB9AED8F0ABDEE06
:101E0000C00A10EE101A9AED7C0A0BB2BDEEC00AA1
:101E100010EE101A9AED690A0AB2BDEEC00A10EE71
:101E2000101A9AED560A09B2BDEEC00A10EE100A59
:101E300000B2FFF719FDA5F56B402A3841D1A14644
:101E4000244CDFF88C80042504F5057A09EB850025
:101E500008EB451710ED040A05EB450000EB0511F2
:101E6000F8EEC00A97ED020A04EB81060AEB810046
:101E7000B16CB8EEC00A8847B7F90C00F0EE400A22
:101E800000EE100AB16C3046B8EEC00A88476D1CEF
:101E9000072DDBDB94ED7C0ABDEEC00A10EE100AC4
:101EA00094ED690A02B2BDEEC00A10EE100A94ED7C
:101EB000560A01B2BDEEC00A10EE100A00B2FFF7DA
:101EC000F7FCBDE8F05F0A2006F07ABD701A00202A
:101ED000A0110020D01C0020014800F085BD0000AA
:101EE000740C0020014800F07FBD0000540B00205E
:101EF000014800F079BD0000B40B0020014800F05B
:101F000073BD0000D40C0020014800F06DBD00003E
:101F1000140C002001681823CAB2103AB2FBF3F285
:101F2000054B6FF30901032A9B5CC36500D9091DAA
:101F30008165084670470000C4A6000810B5014638
:101F400000208B698A6A4FF0C07453B1B3F5005F0B
:101F500015D072B1012A0CD0022A0AD0032A09D165
:101F600004E01AB1012A06D0022A03D1C96AC901C4
:101F700000D5012010BDC96AA142FAD010BD002AC7
:101F8000F7D0012AF2D0022AF3D0032AF3D010BDF1
:101F900030B50468256825F48025256004686360F1
:101FA0008368402B036803D099600068C26030BD2D
:101FB0009A600068C16030BD7047012000F09ABE91
:101FC0004FF4806000F096BE022000F093BE042023
:101FD00000F090BEFEE790F82020012A07D0022AE8
:101FE00005D0416A41F480214162012070470068B8
:101FF00042690A43426100207047F0B590F82050D2
:102000000468A468012D05D0022D03D0416A41F473
:1020100080215DE014F0406F01D1E50055D5C4F397
:102020000164022C03D9416A41F4000150E001250A
:10203000A5401D608D684FF4C0739DB1CE683543D7
:102040004E6845EAC605066803EB0417F5514FF4E0
:10205000C275076805EB04150E697E51097D0129DB
:1020600005D009E00E88CD6845EA4655EBE70168E2
:102070004E5946F480764E511179D579567941EA18
:10208000056195792D0445EA062529434FF4C67666
:10209000056806EB0416A9511178D57841EA056167
:1020A000957852782D0445EA022211434FF4C47505
:1020B000026805EB04155151006803EB0411425806
:1020C00042F0010242500020F0BD416A41F400118B
:1020D00041620120F0BD000010B590F82020012AD7
:1020E00007D0022A05D0416A41F4802141620120D3
:1020F00010BD3B48D0F8002242F00102C0F8002297
:10210000D0F8002222F47C52C0F80022D0F800223D
:102110004B6A42EA0322C0F800220A7D02F01F0344
:1021200001229A40D0F81C329343C0F81C32CB698C
:10213000B3B9D0F80C329343C0F80C328C894B6899
:1021400064F31F434C6900EBC404C4F840320C89AB
:102150000B6864F31F434C6900EBC404C4F84432B9
:10216000CB69012B16D1D0F80C321343C0F80C32D6
:102170000C884B6864F31F434C6900EBC404C4F83B
:1021800040320C89CB6864F31F434C6900EBC404F4
:10219000C4F844328B69002BD0F804320ED01343BC
:1021A000C0F804320B69002BD0F8143208D0134366
:1021B000C0F81432096A012904D008E09343EFE71C
:1021C0009343F5E7D0F81C121143C0F81C12D0F865
:1021D000001221F00101C0F80012002010BD000023
:1021E00000640040704730B590F82040012C05D0C5
:1021F000022C03D0416A41F480215DE0046800298B
:1022000055D02469A40754D04FF4D874056804EB62
:1022100001142D5915F00405956005682D594ED00F
:10222000ED08556005682C5904F00204D4604FF4A1
:10223000DA74056804EB01142D5905F00F051561DA
:1022400005682D59C5F30725956105682C59240C9F
:1022500054614FF4DC72046802EB0112A4581C7044
:102260000468A458240A5C700468A458240C9C7068
:102270000468A258120EDA704FF4DE72046802EBA2
:102280000112A4581C710468A458240A5C710468E3
:10229000A458240C9C710468A258120EDA710068CC
:1022A00081B1016941F020010161002030BDE46885
:1022B000A8E7416A41F400114162012030BD6D0D73
:1022C0001560AFE7C16841F02001C160EDE72DE97D
:1022D000F05F0546006800244669D0F804908768DE
:1022E000D0F80CB0D0F810A0D0F81880F10748D082
:1022F000F90714D001218160B80703D5284600F002
:1023000012FB0CE0780702D54FF4006407E03807B1
:1023100002D54FF4805402E0284600F003FBF80594
:1023200016D529684FF480708860B80503D5284613
:1023300000F0FBFA0CE0780502D544F4005407E005
:10234000380502D544F4804402E0284600F0ECFA57
:10235000F80316D529684FF480308860B80303D598
:10236000284600F0E4FA0CE0780302D544F4004477
:1023700007E0380302D544F4803402E0284600F038
:10238000D5FA300707D55FEACB6004D5296810205D
:1023900044F40074C86070074FF0080707D55FEA7F
:1023A0000B7004D52868C760284600F099F9B0077B
:1023B00006D52868C068800702D0284600F092F948
:1023C000700607D55FEACA6004D52968102044F476
:1023D00080640861B00607D55FEA0A7004D52868F2
:1023E0000761284600F06EFAF00606D528680069F5
:1023F000800702D0284600F066FAB00308D55FEAED
:10240000C96005D5296810204860284600F05CFAAC
:10241000F00307D55FEA097004D5286847602846AD
:1024200000F086FA300446D55FEA497040D5F005E1
:1024300004D55FEAC87001D044F00104B00504D5AA
:102440005FEA887001D544F00204700504D55FEAA4
:10245000487001D544F00404300529D518F0700FF8
:1024600026D008F07000402815D006DC102809D0CE
:1024700020280AD0302816D10AE050280ED0602833
:1024800011D10EE044F008040DE044F010040AE01D
:1024900044F0200407E044F0400404E044F08004E9
:1024A00001E044F480742868816921F07001816141
:1024B000296804204860002C05D0686A20436862BF
:1024C0002846FFF78FFEBDE8F09F70B5040003D0EB
:1024D00094F8200010B104E0012070BD204600F007
:1024E00081F82068016841F00101016000F02EFDD3
:1024F0000546052604E000F029FD401B0A2811D8F6
:1025000020684068C007F6D02068016821F0020109
:10251000016000F01BFD05460BE000F017FD401BBD
:102520000A2806D9606A40F40030606284F82060AE
:10253000D2E7206840688007EFD4207E0128206819
:1025400001683DD021F080010160607E0128206893
:10255000016838D021F040010160A07E0128206888
:10256000016833D021F020010160E07E012820685D
:1025700001682ED041F010010160207F0128206801
:10258000016829D021F008010160607F01282068DE
:10259000016824D021F004010160D4E9020108435C
:1025A000D4E90412114308436168491E08432168B5
:1025B000C86100206062012084F82000002070BD06
:1025C00041F08001C0E741F04001C5E741F0200142
:1025D000CAE721F01001CFE741F00801D4E741F04C
:1025E0000401D9E7F0B587B0044614216846FEF728
:1025F0008DF8364B3648DFF8D0E01968D4F800C0C3
:10260000334A03250226092710300024491CF445CB
:1026100022D11960012907D1016841F000710160E0
:10262000006800F000700590106840F0080010602D
:102630001068CDE9005600F00800CDE90470694645
:102640002448CDE9024500F061FB00220521142059
:1026500000F01AFD142033E0DFF87CE0F44531D1BE
:10266000D0F800C04CF0806CC0F800C0D0F800C0BA
:1026700001290CF0806CCDF814C0196007D10168F5
:1026800041F000710160006800F000700590106872
:1026900040F002001060106802AB00F002000590EC
:1026A0004FF44050CDE9000683E8B00069460B487E
:1026B00000F02CFB00220521402000F0E5FC40202A
:1026C00000F0D4FC07B0F0BD00640040040000201E
:1026D00030380240000C0240006800400004024014
:1026E000704700002DE9F04F06462DED048B8DB0AC
:1026F00003AB05AA0021FFF776FD6B484FF4805A23
:1027000040F2012740F2022940F20528CAF1000BED
:102710009FED668AF3EE038A9FED659A654D8642CA
:102720005AD10598B8420AD0484508D0A0F50071A2
:10273000033904D0B0F5017F01D040454CD1401E93
:10274000C0B22870BDF80C104ABA00EB80015A489C
:1027500020F831206A683AB100EBC10330F831400B
:10276000DC821C83521E6A60BDF80E2000EBC1049F
:1027700052BA2282BDF8102052BA62829DF812200D
:10278000227530F83120B4F91630D21A524502DDE4
:10279000E269521E03E05A4502DAE269521CE26124
:1027A00030F83120E28230F83100B4F91810401AC4
:1027B000E16900EB413000EE100A2062B8EEC00A79
:1027C00060EE080A80EEA80A20EE090A10EE100A50
:1027D00007F0ECFEC4E90201384886425ED1059854
:1027E00040450ED0A0F5007106390AD0A0F5007161
:1027F000073906D0B0F5027F03D0B84201D0484572
:102800004CD1401EC0B22870BDF80C104ABA00EB83
:1028100080012B4820F831206A683AB100EBC103EF
:1028200030F83140DC821C83521E6A60BDF80E20F5
:1028300000EBC10452BA2282BDF8102052BA628263
:102840009DF81220227530F83120B4F91630D21AD2
:10285000524502DDE269521E03E05A4502DAE2699E
:10286000521CE26130F83120E28230F83100B4F9D4
:102870001810401AE16900EB413000EE100A2062A6
:10288000B8EEC00A20EE080AC0EE280A20EE890A37
:1028900010EE100A07F08AFEC4E902010DB0BDEC8B
:1028A000048BBDE8F08F0000880400200000B443D2
:1028B0000000003948000020200F0020B004002054
:1028C00060100020704770477047000070B50446E4
:1028D00090F82000012804D0606A40F40020606273
:1028E00018E0022084F820002068016821F001012E
:1028F000016000F02BFB05460EE000BF00F026FB58
:10290000401B0A2808D9606A40F400306062052044
:1029100084F82000012070BD20684068C007EDD118
:10292000606270BD7047704770477047704770476E
:1029300070472DE9F0410446876D00F007FB06461D
:1029400094F835000025022806D08020606584F8C0
:1029500034500120BDE8F0812068016821F01601A3
:1029600001602068416921F080014161206C08B953
:10297000A06C20B12068016821F008010160206886
:10298000016821F0010101600CE000F0DFFA801B1A
:10299000052807D920206065032084F8350084F8D5
:1029A0003450D7E720680068C007EED194F85C1077
:1029B0003F208840B860012084F8350084F8345006
:1029C0000020C7E790F83510022903D08021416527
:1029D00001207047052180F835100068016821F05A
:1029E00001010160002070472DE9F84304464FF0D3
:1029F0000009CDF8009063484FF41651A56D0068AA
:102A0000B0FBF1F72E6894F85C10082000FA01F191
:102A100031420FD021680A6852070BD50A6822F0AC
:102A200004020A6094F85C108840A860606D40F071
:102A30000100606594F85C104FF0010808FA01F09D
:102A4000304208D021684969090604D5A860606D44
:102A500040F00200606594F85C1004208840304229
:102A600008D021680968890704D5A860606D40F026
:102A70000400606594F85C1010208840304218D043
:102A800021680968090714D5A8602068016849030E
:102A900004D50068000308D5A16C07E00168C905EA
:102AA00003D4016821F008010160216C09B12046BE
:102AB000884794F85C1020208840304231D021684B
:102AC0000968C9062DD5A86094F835000528206846
:102AD000016806D0490347D5006800031DD4616C26
:102AE0001CE021F0160101602068416921F080019D
:102AF0004161206C08B9A06C20B12068016821F008
:102B00000801016094F85C103F208840A86084F8B8
:102B1000358084F83490216D1FE0E16B09B12046C7
:102B20008847606D00282BD0606DC00714D0052049
:102B300084F835002068016821F0010101600098E7
:102B4000401C0090B84203D820680068C007F6D146
:102B500084F8358084F83490E16C002910D001B0FD
:102B60002046BDE8F04308470168C905D5D401688F
:102B700021F01001016084F8358084F83490CCE7AE
:102B8000BDE8F883200000202DE9F041044600F064
:102B9000DDF906465CB1022084F83500002584F892
:102BA00034502068016821F0010101600DE001202E
:102BB000BDE8F08100F0CAF9801B052805D9202066
:102BC0006065032084F83500F2E720680068C007DC
:102BD000F0D12268116820480140D4E9010318436C
:102BE000D4E903363343184363691843A369184390
:102BF000E3691843236A18430843616A042903D12F
:102C0000D4E90B1319430843106020684069666AD1
:102C100020F0070130460E43012704280CD1A06A9A
:102C20000643E06A40B12046FFF788F920B1402012
:102C3000606584F83570BAE7206846612046FFF782
:102C400069F994F85C203F2191408160656584F8C2
:102C500035700020ACE700003F8010F02DE9F04116
:102C60000446866D90F83400002501280DD001201F
:102C700084F8340094F835700020012F07D084F8D0
:102C8000340002252846BDE8F0810220FBE7022738
:102C900084F8357060652046FFF77AF994F85C1087
:102CA0003F208840B0602068016841F01601016053
:102CB000206C20B12068016841F0080101602068A3
:102CC000016841F001010160DCE7000070B50446D5
:102CD00000F03CF90546601C02D00448007804442A
:102CE00000F034F9401BA042FAD370BD140000205C
:102CF00070470000044910B50A68024202D008601B
:102D0000FFF7F6FF10BD0000143C01402DE9F84F1D
:102D1000DFF8F8A10022012403254FF00F090AF182
:102D2000040BAAF1040E00BF0B6804FA02F633404C
:102D3000B34270D10F7907F00307012F01D0022FA2
:102D400016D187684FEA420805FA08FC27EA0C0703
:102D5000D1F80CC00CFA08FC4CEA070CC0F808C00B
:102D60004768B7430E79C6F3001696403E43466067
:102D70000E79F643B6070AD0C7684FEA420C05FA47
:102D80000CF6B7438E6806FA0CF63E43C6600E7921
:102D900006F00306022E10D1D60800EB8608D8F8FC
:102DA000206057074FEAD76C09FA0CF7BE430F694A
:102DB00007FA0CF73743C8F8207006684FEA420C50
:102DC00005FA0CF7BE430F7907F0030707FA0CF773
:102DD000374307604E6816F4403F1CD04C4E3768AE
:102DE00047F480473760366822F0030706F48046D0
:102DF0000096484E07EB060CDCF8086897073F0F73
:102E000009FA07F826EA0806DFF80C81404503D1E5
:102E10004FF0000841E072E0DFF80081404502D148
:102E20004FF0010839E0DFF8F880404502D14FF05B
:102E3000020832E0DFF8EC80404502D14FF0030891
:102E40002BE0DFF8E480404502D14FF0040824E095
:102E5000DFF8D880404502D14FF005081DE0DFF8CB
:102E6000D080404502D14FF0060816E0DFF8C4805C
:102E7000404502D14FF007080FE0DFF8BC80404525
:102E800002D14FF0080808E0DFF8B080404502D1D9
:102E90004FF0090801E04FF00A0808FA07F848EA7D
:102EA0000608CCF80888DAF800605746D1F804C064
:102EB0009E435FEACC2C00D51E433E60DBF80060E9
:102EC0005F46D1F804C09E435FEA8C2C00D51E43B8
:102ED0003E60DEF800607746D1F804C09E435FEAAA
:102EE0008C3C00D51E433E60084F083F3E68D1F839
:102EF00004C09E435FEACC3C00D51E433E60521C9A
:102F0000102AFFF411AFBDE8F88F0000083C014023
:102F100044380240003001400000024000040240FA
:102F200000080240000C0240001002400014024061
:102F300000180240001C0240002002400024024011
:102F40000AB1816170470904FBE70000014880680D
:102F50007047000014000020024881680278114484
:102F600081607047140000200B4810B5016841F4DF
:102F700000710160016841F480610160016841F401
:102F800080710160032000F09FF80F2000F006F828
:102F900000F050F8002010BD003C024030B505465E
:102FA0001F4887B00024016841F08001016000687B
:102FB00006A900F08000009001A800F031F9049803
:102FC000A8B100F04DF940001649174AB0FBF1F1E5
:102FD0001648491E026040F2E732C0E90324C0E906
:102FE0000114846100F03EFD040003D015E000F000
:102FF00037F9E9E70D4800F0FDFD04000DD12C2064
:1030000000F034F8102D07D2002229462C2000F0C1
:103010003BF80748056000E0012407B0204630BDBA
:103020004038024040420F00001C0040340D002098
:10303000180000200C4882B0016841F48041016012
:10304000006800F4804000900748001F016841F0CC
:10305000805101600068002200F0805000900F2134
:10306000901E02B000F010B844380240002809DB7E
:1030700000F01F02012191404009800000F1E02092
:10308000C0F8001170470000F0B40E4B1B680C46EE
:10309000C3F30223C3F10705042D00D90425191D2C
:1030A000072901D2002300E0DB1E012606FA05F104
:1030B000491E214099409E40761E16403143F0BC87
:1030C00003F0DFBD0CED00E0064900F007020868E0
:1030D0004FF6FF03184040EA0220034A10430860FD
:1030E000704700000CED00E00000FA052DE9F04704
:1030F0000E46050065D0DFF81481D8F80000F7B25D
:1031000000F00F00B04207D288F80070D8F8000035
:1031100000F00F00B04254D128683D4C810712D511
:10312000400703D5206840F4E0502060287800076D
:1031300003D5206840F4604020602068A96820F032
:10314000F000084320602878C0072DD03049686817
:103150000839012812D0022813D0032811D0096899
:10316000890700292DDA216821F00301014321603C
:10317000FFF7ECFE814641F2883A0EE009688903C8
:10318000EFE709688901ECE7FFF7E0FEA0EB090132
:10319000514502D90320BDE8F0872068696800F036
:1031A0000C00B0EB810FEFD1D8F80010404601F0D1
:1031B0000F01B14207D90770006800F00F00B0425C
:1031C00001D00120E7E72878400705D52068E968A5
:1031D00020F4E050084320602878000706D52068D6
:1031E000296920F4604040EAC100206000F058F8EE
:1031F0002168084AC1F30311515CC84006490860C0
:1032000006480068FFF7CAFE0020C4E7003C024001
:1032100008380240CCA6000820000020180000203A
:103220000F2202600C4A136803F003034360136823
:1032300003F0F0038360136803F4E053C360126883
:103240004FF4E05303EAD20202610448006800F040
:103250000F0008607047000008380240003C024040
:103260000448054900680968044AC1F38221515C99
:10327000C84070472000002008380240DCA6000843
:103280000448054900680968044AC1F34231515CA9
:10329000C84070472000002008380240DCA6000823
:1032A000154810B5006810F00C02144813D01449EA
:1032B000042A0FD0082A0ED10F4C241F226823683D
:1032C00002F03F025B0207D52068C0F38810A0FB24
:1032D000010106E0084610BD2168C1F38811A1FB79
:1032E00000010023FDF752F82168C1F30141491C98
:1032F0004900B0FBF1F010BD083802400024F40092
:10330000001BB7002DE9F84F04006ED02078DFF8DD
:103310004C93C007A9F104054AD009F104000168E3
:10332000C1F38101012908D00068C0F3810002289F
:103330000AD1D9F80000400206D52868800337D5A5
:1033400060680028E1D033E06068B0F5803F10D0BD
:10335000B0F5A02F286810D020F4803028602868AD
:1033600020F4802028606068A8B1FFF7EFFD0646D2
:103370000DE0286840F48030F4E740F480202860B5
:10338000F7E700BFFFF7E2FD801B642873D82868C9
:103390008003F7D50CE0FFF7D9FD064605E000BF36
:1033A000FFF7D4FD801B6428F0D828688003F7D489
:1033B0002078DFF8AC8280074FF0000A3ED5A7489E
:1033C000001D016811F00C0F08D00068C0F38100E7
:1033D00002280BD1D9F80000400207D428688007E2
:1033E00016D5E068012800D112E033E1E068B8B1F9
:1033F0000120C8F80000FFF7A9FD064605E000BF60
:10340000FFF7A4FD801B0228C0D828688007F7D5E5
:103410002868216920F0F80040EAC10028600DE02A
:10342000C8F800A0FFF792FD064604E0FFF78EFD06
:10343000801B02281FD828688007F7D4207800074F
:1034400022D5864F87486169703771B101210160CB
:10345000FFF77CFD064604E0FFF778FD801B02289D
:1034600009D838688007F7D50EE0C0F800A0FFF74C
:103470006DFD064605E082E0FFF768FD801B02282F
:103480007DD838688007F7D42078400768D5DFF802
:10349000CCB100270BF13C0BDBF80000C0000BD4D3
:1034A000DBF8001041F08051CBF80010DBF8000091
:1034B000012700F0805000906B4E3068C00510D49A
:1034C000306840F480703060FFF740FD009005E008
:1034D000FFF73CFD0099401A022850D83068C0051B
:1034E000F6D55E4EA0686C3601280FD005283068EE
:1034F00010D020F001003060306820F0040030600F
:10350000A068B8B1FFF722FD00900FE0306840F0EE
:103510000100F4E740F004003060F7E7FFF716FD24
:103520000099411A41F28830814266D8306880079C
:10353000F4D50EE0FFF70AFD009007E0FFF706FD67
:103540000099411A41F28830814256D8306880078C
:10355000F4D42FB1DBF8001021F08051CBF800102B
:10356000A069C8B33D49091D0968C1F38101022959
:103570004AD00228504607D0C8F8600000E03CE07E
:10358000FFF7E4FC04463BE04746C8F86000FFF75D
:10359000DDFC064605E000BFFFF7D8FC801B0228D3
:1035A0002BD828688001F7D4D4E907010843A16A21
:1035B0002E4A490802EB0141626A41EA821108433E
:1035C00094F82C1040EA0161C9F800100120386617
:1035D000FFF7BCFC044606E03EE000BFFFF7B6FC88
:1035E000001B022809D828688001F7D534E000BF05
:1035F000FFF7ACFC001B022802D90320BDE8F88FBE
:1036000028688001F4D427E00128F7D0D9F8000019
:10361000E26900F4800191421CD1226A00F03F016E
:10362000914217D147F6C071626A0140B1EB821F27
:1036300010D1A26A4FF0FF3300F4403103EB520285
:10364000B1EB024F06D194F82C1000F07060B0EB93
:10365000016F01D00120D1E70020CFE704380240FC
:1036600000004742800E4742007000400000FFFF0C
:1036700070B5040009D0606A002540B1256165611C
:10368000A56294F8510040B10CE0012070BD606863
:10369000B0F5827FF4D0E561F2E784F8505020461F
:1036A00000F044F8022084F851002068016821F0FD
:1036B00040010160A088218900F4827001F4044176
:1036C0000843A18901F400610843217C01F0020153
:1036D0000843217D01F001010843218B01F40071B1
:1036E0000843217F01F03801084394F8201001F0CD
:1036F00080010843218D01F40051084321680860CE
:10370000A069042101EA104094F8241001F010018E
:103710000843216848602068C16921F40061C161E3
:103720006565012084F85100002070BD10B586B099
:10373000044614216846FCF7E9FF144920688842D2
:1037400021D113480021026842F48012026000680F
:1037500000F4801005900E481438026842F02002F0
:103760000260006800F0200005904FF46070009047
:103770000220CDE901010320039005200490694651
:103780000448FFF7C3FA06B010BD00000050014026
:1037900044380240001402402DE9F84F044690F8E6
:1037A000500000270A9E1D4692468B464FF00109A5
:1037B00001280ED0012084F85000FFF7C7FB804697
:1037C00094F85100616801280CD0B1F5827F07D1CF
:1037D00002E00220BDE8F88FA16809B9042801D0F1
:1037E0000227C2E0BBF1000F27D0BAF1000F24D0AE
:1037F0001DB394F85100042802D0052084F851002C
:1038000000206065C4F838A0E587A587C4F830B00B
:10381000E586A5862064606420680168490603D4B3
:10382000016841F040010160E068B0F5006F606838
:1038300005D0E8B3012D46D07FE0012795E008B11F
:10384000012D39D1206B21680088C860206B801C55
:103850002063E08E401EE0862EE0206881688907A4
:103860000FD5E18E69B1B9F1010F0AD1216B098839
:10387000C160206B801C2063E08E401EE0864FF00C
:10388000000920688168C9070CD0E18F51B1C06878
:10389000A16B0880A06B801CA063E08F401EE087B6
:1038A0004FF00109FFF752FBA0EB0800B04200E027
:1038B00009E001D3701C50D1E08E0028CDD1E08FFB
:1038C0000028CAD13FE0206B216800780873206B84
:1038D000401C2063E08E401EE0862EE02068816858
:1038E00089070FD5E18E69B1B9F1010F0AD1216BBA
:1038F00009780173206B401C2063E08E401EE08637
:103900004FF0000920688168C9070CD0E18F51B1E0
:10391000C068A16B0870A06B401CA063E08F401EC4
:10392000E0874FF00109FFF711FBA0EB0800B04260
:1039300002D3701C01D010E07EB1E08E0028CDD102
:10394000E08F0028CAD142463146204602F0D8F81E
:1039500028B101272020606507E0032705E0A06863
:1039600018B92068C16880680090012084F851006F
:10397000002084F8500038462CE77047704710B597
:1039800090F83C20012A22D0012280F83C20CA680D
:103990008C6822F4407222434C6822F480622243F5
:1039A0000C6822F4006222430C6922F48052224304
:1039B0004C6922F400522243C969002322F4804258
:1039C0000A4301684A6480F83C30002010BD0220A0
:1039D00010BD000070B590F83C20012A32D00124BF
:1039E00080F83C40022280F83D2003685A689D68B8
:1039F00022F070060A6832435A60134B02689A42FA
:103A000014D0B2F1804F11D0104B9A420ED0104B0F
:103A10009A420BD00F4B9A4208D00F4B9A4205D0D6
:103A20000E4B9A4202D00E4B9A4204D1496825F0BF
:103A300080031943916080F83D40002180F83C10DC
:103A4000084670BD022070BD000001400004004027
:103A500000080040000C004000040140004001400C
:103A60000018004010B5040003D094F83D0010B1D8
:103A700007E0012010BD002084F83C00204600F043
:103A80001FF8022084F83D00211D206802F0A0FAF2
:103A9000012084F8460084F83E0084F83F0084F852
:103AA000400084F8410084F8420084F8430084F820
:103AB000440084F8450084F83D00002010BD00005B
:103AC00008B501682748B1F1804F0BD0264A9142D2
:103AD00010D1016841F002010160006800F00200AD
:103AE000009008BD016841F001010160006800F02C
:103AF0000100F5E71D4A914207D1016841F0040138
:103B00000160006800F00400EAE7194A914207D119
:103B1000016841F008010160006800F00800DFE77B
:103B2000144A914213D10F48001D016841F002016F
:103B300001600068002200F0020000900F212C209C
:103B4000FFF7A2FABDE808402C20FFF78FBA0A4A17
:103B50009142C6D1016841F040010160006800F067
:103B60004000BDE74038024000040040000800402B
:103B7000000C0040000401400018004090F83D1087
:103B8000012901D001207047022180F83D10006812
:103B90001149884214D0B0F1804F11D00F498842AA
:103BA0000ED00F4988420BD00E49884208D00E49EA
:103BB000884205D00D49884202D00D49884204D17F
:103BC000816801F00701062903D0016841F0010175
:103BD0000160002070470000000001400004004028
:103BE00000080040000C004000040140004001407B
:103BF0000018004090F83D10012901D001207047C5
:103C0000022180F83D100168CA6842F00102CA60D2
:103C100000681149884214D0B0F1804F11D00F498B
:103C200088420ED00E4988420BD00E49884208D0F7
:103C30000D49884205D00D49884202D00C4988427E
:103C400004D1816801F00701062903D0016841F021
:103C500001010160002070470000014000040040A5
:103C600000080040000C00400004014000400140FA
:103C70000018004070B5044690F83C00002501286B
:103C800017D0012684F83C60022084F83D002068AB
:103C9000826822F0770222F47F428260086850280E
:103CA00038D00DDC20284FD005DC90B3102811D17E
:103CB0004AE0022070BD302846D040280AD13BE0BF
:103CC00060282FD070280DD0B0F5805F03D0B0F5FC
:103CD000005F12D0012584F83D60002084F83C008C
:103CE000284670BDCB68D1E90121206802F0E1F9D6
:103CF0002068816841F0770109E0CB68D1E90121B2
:103D0000206802F0D6F92068816841F48041816022
:103D1000E1E719E0CA684968206802F09FFA50217B
:103D2000206806E0CA684968206802F0A8FA6021A5
:103D3000206802F0C8F9CEE7CA684968206802F036
:103D40008DFA40212068F4E7226801461046F0E72A
:103D5000704770B50446006801694FF00005C9431B
:103D6000890715D4C168C943890711D4E91E0161C7
:103D700001202077206880698007204602D0FFF765
:103D8000E7FF04E000F04AF9204600F0DCF925776F
:103D900020680169C943490717D4C168C943490765
:103DA00013D46FF00401016102202077206880693C
:103DB00010F4407F204602D0FFF7CAFF04E000F075
:103DC0002DF9204600F0BFF9257720680169C94325
:103DD000090716D4C168C943090712D46FF0080156
:103DE0000161042020772068C0698007204602D046
:103DF000FFF7AEFF04E000F011F9204600F0A3F950
:103E0000257720680169C943C90617D4C168C94329
:103E1000C90613D46FF010010161082020772068D3
:103E2000C06910F4407F204602D0FFF791FF04E004
:103E300000F0F4F8204600F086F925772068016943
:103E4000C943C90708D1C168C943C90704D1891E3C
:103E50000161204600F0DCF920680169C9430906C8
:103E600009D4C168C943090605D46FF08001016116
:103E70002046FFF782FD20680169C943490609D43D
:103E8000C168C943490605D46FF04001016120466D
:103E900000F0C8F920680169C94389060BD4C168DC
:103EA000C943890607D46FF0200101612046BDE8AF
:103EB0007040FFF763BD70BDF0B587B004461421B4
:103EC0006846FCF723FC20680024494902250123A9
:103ED000B0F1804F11D0474A904223D1086840F09A
:103EE000020008600868694600F002000590202082
:103EF0000090CDE9015440484CE0086840F00100D2
:103F000008600868694600F0010005900F200090E5
:103F1000CDE90154CDE90343384800BFFEF7F6FE72
:103F200007B0F0BD364A90420FD1086840F0080053
:103F300008600868694600F0080005904FF470407A
:103F40000090CDE901542F4824E02F4F2F4A304EE6
:103F5000B84222D1086840F480700860086800F414
:103F600080700590086840F0800008600868009341
:103F7000CDE9015400F08000CDE904506946039476
:103F80001046FEF7C3FE4FF4E0500090CDE9015417
:103F900069463046CDE90345C0E71E4B984211D132
:103FA000086840F4807008600868694600F4807012
:103FB0000590E4200090CDE901540320CDE90340B1
:103FC0001046ABE7144A9042AAD1086840F080003E
:103FD00008600868694600F0800005904020009065
:103FE000CDE901540920CDE90340304696E70000B1
:103FF000303802400004004000040240000002404B
:1040000000080040000C0240000C0040002002406C
:10401000001C02400004014000180040704770B5C9
:10402000044690F83C0000260D4601280FD00120E0
:1040300084F83C006AB1042A1DD0082A2FD00C2A2B
:104040003FD00126002084F83C00304670BD02209D
:1040500070BD206802F040F82068816941F00801D5
:1040600081612068816921F0040181612068816992
:104070002A69114311E0206802F05EF82068816926
:1040800041F4006181612068816921F4806181616E
:10409000206881692A6941EA02218161D2E72068AA
:1040A00002F080F82068C16941F00801C161206810
:1040B000C16921F00401C1612068C1692A69114305
:1040C00011E0206802F0A2F82068C16941F40061A3
:1040D000C1612068C16921F48061C1612068C16942
:1040E0002A6941EA0221C161ACE710B5040003D09E
:1040F00094F83D0010B107E0012010BD002084F8C5
:104100003C00204600F01EF8022084F83D00211DEE
:10411000206801F05DFF012084F8460084F83E002D
:1041200084F83F0084F8400084F8410084F842009D
:1041300084F8430084F8440084F8450084F83D0086
:10414000002010BD7047704710B50446022249B1E7
:1041500004290ED0082913D094F84100012816D064
:10416000012010BD94F83E000128F9D184F83E20CA
:104170000FE094F83F000128F2D184F83F2008E0D6
:1041800094F840000128EBD184F8402001E084F845
:1041900041200122206801F07FFF16492068164A5D
:1041A000884201D0904203D1436C43F400434364FE
:1041B0002068884213D0B0F1804F10D00F49884258
:1041C0000DD00F4988420AD00E49884207D090424C
:1041D00005D00D49884202D00C49884204D181683B
:1041E00001F00701062903D0016841F001010160D7
:1041F000002010BD00000140000401400004004008
:1042000000080040000C0040004001400018004041
:1042100000680349884201D1FEF79EBE7047000046
:10422000001C00407047704710B5044600684069A4
:1042300094F83D10C0F3C010212911D180B120683D
:10424000143050E8001F21F0800140E80012002ADD
:10425000F5D1606B08B1FEF76CFB204602F09AFACC
:104260002068406994F83E10C0F38010222911D1D3
:1042700080B12068143050E8001F21F0400140E870
:104280000012002AF5D1A06B08B1FEF752FB2046C0
:1042900002F059FA002010BD70470000F8B501681F
:1042A00004460868CA684B6910F00F0F4FF000050C
:1042B00059D003F0010602F49077374365D0C10767
:1042C00005D0D10503D5216C41F0010121644107DE
:1042D00005D5D90703D0216C41F002012164810783
:1042E00005D5D90703D0216C41F0040121640107F1
:1042F00007D502F02001314303D0216C41F00801C1
:104300002164216C00293AD0800604D5900602D59C
:10431000204602F04DFA20684069216CC0F38010FD
:10432000090700D460B3204602F00DFA2068406906
:10433000400621D52068143050E8001F21F04001CC
:1043400040E80012002AF5D1A06BA8B16C490165C4
:10435000A06BFEF737FB002811D0A06B016D01B0F8
:10436000BDE8F040084783060FD593060DD52046DB
:10437000BDE8F84002F01CBA2046FFF78DFFF8BDFB
:104380002046FFF789FF2564F8BD266B2023012E08
:1043900079D1C60677D5D60675D5086848680090E5
:1043A0004869400640D5A16B086840680004000CCD
:1043B000EAD0A28D8242E7D9E085C869B0F5807F56
:1043C0002DD020680C3050E8001F21F4807140E8A7
:1043D0000012002AF5D12068143050E8001F21F0A7
:1043E000010140E80012002AF5D12068143050E89D
:1043F000001F21F0400140E80012002AF5D184F8A6
:104400003E30256320680C3050E8001F21F0100179
:1044100040E80012002AF5D1A06BFEF78AFAA08DC1
:10442000E18D401A81B229E0A08DE18D401A81B260
:10443000E08D0028A8D00029A6D020680C3050E8D4
:10444000002F22F4907240E80026002EF5D120685B
:10445000143050E8002F22F0010240E80026002E20
:10446000F5D184F83E30256320680C3050E8002FE9
:1044700022F0100240E80023002BF5D12046FFF780
:10448000D2FEF8BDFFE705062BD5150629D594F811
:104490003D002128F5D1A068B0F5805F01D12069E9
:1044A000B0B1206A411C2162216800784860E08C2C
:1044B000401E0004000CE084E3D12068C16821F0B4
:1044C0008001C1602068C16841F04001C160D8E747
:1044D000206A0088C0F308004860206A801C2062BF
:1044E000E5E74006CDD55006CBD5CA68204622F078
:1044F0004002CA6084F83D3000F019FAC1E70000BC
:104500005166000870B5040004D094F83D00002501
:1045100010B106E0012070BD84F83C50204600F048
:1045200023F8242084F83D002068C16821F400515C
:10453000C160204602F09CF92068016921F4904195
:1045400001612068416921F02A0141612068C16848
:1045500041F40051C1602564202084F83D0084F8B6
:104560003E00002070BD00002DE9F04F87B00546E9
:1045700014216846FCF7CAF8A748DFF8988210387B
:10458000D5F800C00024A44B022203210827DFF83D
:104590008CA206154FF02069C44536D1D3F800C06F
:1045A0004CF0804CC3F800C01B6803F080430593B7
:1045B000036843F0100303600068CDE9024100F096
:1045C00010000590C801CDE90002049769465046E5
:1045D000FEF79CFB934F92483860C7E90194C7E906
:1045E00003467C61BC61FC613C6238467C62FEF73C
:1045F000CBFA08B1FDF7EEFCAF6300220521522093
:10460000BD63FEF741FD522039E0DFF81C82C4454E
:104610003AD1D3F800C04CF0004CC3F800C01B687E
:1046200003F000430593036843F010030360006840
:1046300000F0100005908DE81600CDE903176946DB
:104640005046FEF763FB774F754860374830386057
:10465000C7E90194C7E903467C61BC61FC613C6227
:1046600038467C62FEF790FA08B1FDF7B3FCAF6301
:10467000002205215320BD63FEF706FD5320FEF7FF
:10468000F5FC07B0BDE8F08FDFF8A081DFF888A166
:104690004FF0070B0AF1040AC4453ED1DAF8007066
:1046A00047F01007CAF80070DAF8003003F0100382
:1046B0000593036843F0020303600068CDE90241FB
:1046C00000F002000590C020CDE90002CDF810B046
:1046D00069465748FEF71AFB524F5648C0373860B4
:1046E0004FF00060C7E90104C7E90346C0147C61CC
:1046F000C7E906404FF44030C7E908043846FEF7E2
:1047000043FA08B1FDF766FCAF63002205212520BE
:10471000BD63FEF7B9FC2520B1E7DFF81C81C44575
:1047200039D11F6847F480271F601B6803F480237A
:104730000593036843F0080303600068CDE9024174
:1047400000F0080005904FF44070CDE90002CDF86C
:1047500010B069463948FEF7D9FA3148384F303839
:1047600038604FF00060C7E90104C7E903467C6187
:10477000BC61FC613C6238467C62FEF705FA08B118
:10478000FDF728FCAF63002205212720BD63FEF75B
:104790007BFC272073E72B4B9C457FF472AFDAF844
:1047A00000C04CF0200CCAF800C0DAF8003003F06A
:1047B00020030593036843F0400303600068CDE9DC
:1047C000024100F0400005904FF48440CDE9000222
:1047D000049769461C48FEF799FA194F1548603747
:1047E00018383860C7E90194C7E903467C61BC61A9
:1047F000FC613C6238467C62FEF7C6F908B1FDF701
:10480000E9FBAF63002205214720BD63FEF73CFCB6
:10481000472034E700780040403802400010024052
:1048200058600240540B0020007C00400010014002
:10483000000402404064024000480040000C024076
:10484000740C0020001401400018024090F83E3023
:10485000202B0ED159B152B190F83C30012B08D029
:10486000012380F83C300023036302F087B8012065
:104870007047022070477047704700002DE9F843E9
:10488000044690F83D001F4616460D4620284CD1A0
:10489000C5B1BEB194F83C00012846D0012084F88F
:1048A0003C004FF00008C4F84080212084F83D000F
:1048B000FEF74CFBA6848146E684A068B0F5805FD5
:1048C00003D004E00120BDE8F883206928B12E461A
:1048D0005FF0000584F83C800EE00026FAE78021B6
:1048E000204602F095F8A0B9AEB116F8010B216888
:1048F0004860E08C401EE084E08C4B464FF00002A4
:1049000000970028EBD14FF04001204602F080F8DC
:1049100030B10320D7E735F8020BC0F30800E6E713
:10492000202084F83D000020CDE70220CBE770472F
:10493000FEE700002DED028B074C9FED088A00BFBB
:1049400003F032FCD4ED030AB0EE480A04F02AFC6E
:10495000012004F035F8F3E7EC1200200000684273
:10496000024624480B2A44D2DFE802F043060C1228
:10497000181E242A30393D0011B1002202212CE0FA
:104980000122FBE711B10022042126E00122FBE70E
:1049900011B10022082120E00122FBE711B1002221
:1049A00010211AE00122FBE711B10022202114E0BE
:1049B0000122FBE711B1002240210EE00122FBE7BA
:1049C00011B10022802108E00122FBE74FF480733F
:1049D0000CE0012200E000221946FEF7B1BA4FF4C4
:1049E0008043054802E005484FF400630029F2D1F6
:1049F000EFE7704700180240001402400010024028
:104A000010B500224FF4FF710848FEF799FA002212
:104A10004FF400610648FEF793FABDE8104000220B
:104A20004FF480410348FEF78BBA000000180240A3
:104A3000001002400014024070B5564A1046D67865
:104A40008178847943790579534830392E2E02D004
:104A50002E2D12D02BE001EB4102C2EBC11104EB71
:104A6000C101642215FB02F203EB830302EB430254
:104A70001144A1F5A051D03918E042F2107511FB94
:104A800005F106EB4605C5EBC61501EBC50103EBC9
:104A9000C30505EB031301EB830104EB8403D27917
:104AA00001EB43011144A1F55041503981603B4B6A
:104AB0001A46DE78917895795479127930392E2E0C
:104AC00002D02E2A12D02BE001EB4103C3EBC1111F
:104AD00005EBC101642312FB03F204EB840302EB38
:104AE00043021144A1F5A051D03918E042F21072EE
:104AF00011FB02F106EB4602C2EBC61201EBC2014A
:104B000004EBC40202EB041201EB820105EB850207
:104B100001EB4201DA791144A1F550415039C160ED
:104B20001F4B1A46DE78917895795479127930398D
:104B30002E2E1CD02E2A19D142F2107211FB02F136
:104B400006EB4602C2EBC61201EBC20104EBC40243
:104B500002EB041201EB820105EB850201EB42013D
:104B6000DA791144A1F550415039016170BD01EB72
:104B70004103C3EBC11105EBC101642312FB03F236
:104B800004EB840302EB43021144A1F5A051D03998
:104B9000EBE70000E006002028000020700800205D
:104BA000380900200F4810B50D490160032141600C
:104BB00000214FF410228160C0E903124FF400126B
:104BC0004261017641768176C17601774177FDF7C2
:104BD0007CFC002803D0BDE81040FDF7FBB910BDF8
:104BE00000640040880400200F4810B50D490160A2
:104BF0000321416000214FF410228160C0E90312BB
:104C00004FF400124261017641768176C1760177D8
:104C10004177FDF75AFC002803D0BDE81040FDF7AE
:104C2000D9B910BD00680040B00400201D4808B587
:104C3000016841F480010160016801F48001009184
:104C4000016841F4001101600068002200F40010C6
:104C5000009005210C20FEF717FA0C20FEF706FA4B
:104C6000002205210E20FEF70FFA0E20FEF7FEF9B6
:104C7000002205211120FEF707FA1120FEF7F6F9B0
:104C8000002205213920FEF7FFF93920FEF7EEF961
:104C9000002205213A20FEF7F7F9BDE808403A2046
:104CA000FEF7E4B93038024000B587B01C2206494F
:104CB0006846FBF7F9FC0021684603F08DFE0349C6
:104CC000086007B000BD0000A8A600080000002092
:104CD0002DE9F04F87B014216846FBF717FD7C489B
:104CE0000025016841F010010160016801F0100128
:104CF0000591016841F002010160016801F00201C3
:104D00000591016841F040010160016801F0400136
:104D10000591016841F001010160016801F00101A4
:104D20000591016841F008010160016801F0080186
:104D30000591016841F480710160016801F480719E
:104D40000591016841F020010160016801F0200136
:104D50000591016841F080010160016801F0800166
:104D60000591016841F0040101600068002200F033
:104D70000400059041F270015648FEF7E1F8DFF8B3
:104D800058B14FF4FF79012249465846FEF7D8F84A
:104D9000002240215148FEF7D3F800221C21504840
:104DA000FEF7CEF84FF4006A012251464948FEF75B
:104DB000C7F8002203214B48FEF7C2F801229103F5
:104DC0004648FEF7BDF841F21000112701240326E2
:104DD000CDE90007CDE9024669463E48FDF796FF5A
:104DE00060208DE8710069463A48FDF78FFF40F278
:104DF00003404FF48818CDE900086946029437480B
:104E0000FDF784FFCDF80090CDE90145694658468D
:104E10000395FDF77BFF44F240008DE831006946C1
:104E20002E480395FDF772FF0C208DE8710069464E
:104E30002B48FDF76BFF0420CDE90008694602947A
:104E40002848FDF763FF10208DE8310069462448AB
:104E50000395FDF75BFFCDF800A0CDE9014569465C
:104E60001C480395FDF752FF0220CDE90007CDE96C
:104E7000024669461B48FDF749FFCDE9024600940A
:104E8000694618480194FDF741FF002205210620DC
:104E9000FEF7FAF80620FEF7E9F8002205210720C0
:104EA000FEF7F2F80720FEF7E1F8002205210820BE
:104EB000FEF7EAF80820FEF7D9F80022052128209D
:104EC000FEF7E2F82820FEF7D1F807B0BDE8F08F32
:104ED0003038024000100240001802400014024026
:104EE00000080240000402400F4810B50D4901605F
:104EF0004FF48271416000218160C1604FF4007203
:104F00000161C0E90512C1610162416281620A2149
:104F1000C162FEF7ADFB002803D0BDE81040FDF7ED
:104F200059B810BD00500140D804002010B58CB015
:104F300000240794089409941C2168460A94FBF7FE
:104F4000E5FB19481749C0E900144FF6FF71C0E9A5
:104F5000024104618461FEF785FD08B1FDF73AF86E
:104F60004FF48050079007A90F48FEF783FE08B161
:104F7000FDF730F80C48FFF7B8F808B1FDF72AF84C
:104F80006020CDE90004029400226946064804949A
:104F9000FFF745F808B1FDF71DF80348FEF78CFF51
:104FA0000CB010BD001800409806002010B58EB05F
:104FB00000240794089409940A940B941C216846D1
:104FC0000C94FBF7A3FB29484FF08041016053216B
:104FD000C0E90114611EC0E903148461FEF742FDBB
:104FE00008B1FCF7F7FF4FF48050079007A91F485E
:104FF000FEF740FE08B1FCF7EDFF1C48FFF775F81F
:1050000008B1FCF7E7FF0B940BA918480C94FEF7C6
:10501000E1FC08B1FCF7DEFF6020CDE9000402945A
:105020000022694611480494FEF7F9FF08B1FCF725
:10503000D1FF042269460D48FEF7F1FF08B1FCF7E5
:10504000C9FF082269460948FEF7E9FF08B1FCF7E5
:10505000C1FF0C2269460548FEF7E1FF08B1FCF7E5
:10506000B9FF0248FEF728FF0EB010BD3005002042
:1050700010B58EB000240794089409940A940B94F8
:105080001C2168460C94FBF741FB1E481C49C0E9F3
:1050900000144FF6FF71C0E9024104618461FEF71C
:1050A000E1FC08B1FCF796FF4FF48050079007A988
:1050B0001448FEF7DFFD08B1FCF78CFF1148FFF73D
:1050C00014F808B1FCF786FF0B940BA90D480C945B
:1050D000FEF780FC08B1FCF77DFF6020CDE90004FD
:1050E00002940422694607480494FEF798FF08B129
:1050F000FCF770FF0348FEF7DFFE0EB010BD0000A6
:10510000000400407805002010B58EB000240794FC
:10511000089409940A940B941C2168460C94FBF79C
:10512000F5FA2A48284901605321C0E901144FF6D5
:10513000FF71C0E903148461FEF794FC08B1FCF729
:1051400049FF4FF48050079007A92048FEF792FDD1
:1051500008B1FCF73FFF1D48FEF7C7FF08B1FCF799
:1051600039FF0B940BA919480C94FEF733FC08B1D6
:10517000FCF730FF6020CDE900040294002269466C
:1051800012480494FEF74BFF08B1FCF723FF0422FA
:1051900069460E48FEF743FF08B1FCF71BFF0822E3
:1051A00069460A48FEF73BFF08B1FCF713FF0C22E3
:1051B00069460648FEF733FF08B1FCF70BFF0348CA
:1051C000FEF77AFE0EB010BD00080040C0050020BA
:1051D00010B58EB000240794089409940A940B9497
:1051E0001C2168460C94FBF791FA2A482849016073
:1051F0005321C0E90114611EC0E903148461FEF764
:1052000031FC08B1FCF7E6FE4FF48050079007A987
:105210002048FEF72FFD08B1FCF7DCFE1D48FEF725
:1052200064FF08B1FCF7D6FE0B940BA919480C9447
:10523000FEF7D0FB08B1FCF7CDFE6020CDE90004FD
:1052400002940022694613480494FEF7E8FE08B170
:10525000FCF7C0FE042269460E48FEF7E0FE08B1E6
:10526000FCF7B8FE082269460A48FEF7D8FE08B1E6
:10527000FCF7B0FE0C2269460648FEF7D0FE08B1E6
:10528000FCF7A8FE0348FEF717FE0EB010BD0000A5
:10529000000C00400806002010B596B000240F94C2
:1052A00010941194129413941C2168461494FBF7E3
:1052B0002DFA202107A8FBF729FA3448324901606A
:1052C000A721C0E901144FF6FF71C0E9031444613E
:1052D0008461FEF7C7FB08B1FCF77CFE4FF48050F9
:1052E0000F900FA92948FEF7C5FC08B1FCF772FE24
:1052F0002648FEF7FAFE08B1FCF76CFE139413A9DA
:1053000022481494FEF766FB08B1FCF763FE6020A8
:10531000CDE90004029403940494059400226946A4
:105320001A480694FEF77BFE08B1FCF753FE0422F0
:1053300069461648FEF773FE08B1FCF74BFE0822DB
:1053400069461248FEF76BFE08B1FCF743FE0C22DB
:1053500069460E48FEF763FE08B1FCF73BFE079472
:10536000089409944FF400500A94CDE90B4007A922
:1053700006480E94FEF703FB08B1FCF72BFE03482A
:10538000FEF79AFD16B010BD000401405006002043
:1053900010B5134C11480C2120604FF4E1306060CF
:1053A0000020A060E060C4E90401A061E061204643
:1053B000FFF7A8F808B1FCF70DFE2068C16841F0BE
:1053C0002001C1602068C16841F01001C160BDE8E2
:1053D0001040C82203490248FFF738BA007800405D
:1053E000000A00207008002010B5134C11480C2151
:1053F00020604FF4E13060600020A060E060C4E90C
:105400000401A061E0612046FFF77CF808B1FCF7D9
:10541000E1FD2068C16841F02001C1602068C168D9
:1054200041F01001C160BDE81040C82203490248A4
:10543000FFF70CBA007C0040440A00203809002025
:105440000D4810B50B4901600C49416000214FF433
:1054500080628160C0E903120C22C0E90521C161AC
:10546000FFF750F8002803D0BDE81040FCF7B2BDAC
:1054700010BD000000100140880A0020A086010035
:1054800010B5134C11480C2120604FF4E1306060DE
:105490000020A060E060C4E90401A061E061204652
:1054A000FFF730F808B1FCF795FD2068C16841F0BE
:1054B0002001C1602068C16841F01001C160BDE8F1
:1054C0001040C82203490248FFF7C0B90048004015
:1054D000CC0A0020E006002010B5134C11480C2126
:1054E00020604FF4E13060600020A060E060C4E91B
:1054F0000401A061E0612046FFF704F808B1FCF761
:1055000069FD2068C16841F02001C1602068C16860
:1055100041F01001C160BDE81040C82203490248B3
:10552000FFF794B900140140100B0020A8070020D9
:10553000FEE7FEE72DE9F04701462DED068BDFED96
:10554000FE9A9FEDFE9ADFEDFE8A9FEDFEAAFE4DCC
:1055500005F518709FEDFD8AD4297CD07CDCFC4CCD
:10556000792904F5187978D078DCF9486F2900F1A9
:10557000E40600F1980500F14C0770D070296FD156
:1055800003F0BCFA226CF0EE482AB0EE482AF6EEA0
:10559000001AB0EE491AF0EE680A0021B0EE480A8F
:1055A000EB489047384603F0A9FAD4F88C20F0EE87
:1055B000482AB0EE482AF6EE001AB0EE491AF0EE8C
:1055C000680A0021B0EE480A38469047284603F0A2
:1055D00095FAD4F8D820F0EE482AB0EE482AF6EE34
:1055E000001AB0EE491AF0EE680A0021B0EE480A3F
:1055F00028469047304603F081FAD4F82421F0EE93
:10560000482AB0EE482AF6EE001AB0EE491AF0EE3B
:10561000680A0021B0EE480A30469047CD4803F0B2
:105620006DFAD9F840204C46F0EE482AB0EE482AF0
:10563000F6EE001AB0EE491AF0EE680A0021B0EE5C
:10564000480AC4489047C3484C30054603F056FA10
:10565000F0EE482A05E059E168E004E141E0ADE000
:1056600060E0D4F88C20B0EE482AF6EE001AB0EED6
:10567000491AF0EE680A0021B0EE480A2846904721
:10568000B4489830054603F039FAD4F8D820F0EE43
:10569000482AB0EE482AF6EE001AB0EE491AF0EEAB
:1056A000680A0021B0EE480A28469047A948E4302D
:1056B000054603F023FAD4F82421F0EE482AB0EE90
:1056C000482AF6EE001AB0EE491AF0EE680A0021F8
:1056D000B0EE480A284600BFBDEC068BBDE8F04797
:1056E00010477A297ED0D3291CD1002404EB440032
:1056F00000EB041005EB8006304603F0FFF9326C36
:105700003046F0EE692AB0EE4A2AF0EE081AB0EE02
:10571000491AF0EE680A0021B2EE040A9047641CB0
:10572000042CE3DBBDEC068BBDE8F087DD297DD0E2
:10573000DE297CD0884CDFED898AA1F62931B1F5CC
:10574000604175D00129EDD104269FED859A04F5BD
:105750000578DFED849A00BF06EB460000EB0617E4
:1057600004EB8705284603F0C9F92A6C2846F0EEB9
:10577000482AB0EE482AF3EE0E1AB0EE491AF0EEBF
:10578000680A0021B0EE480A904708EB87052846D2
:1057900003F0B4F92A6C2846F0EE482AB0EE482A05
:1057A000F3EE041AB2EE041AF0EE690A0021B0EE2C
:1057B000480A9047761C072ECEDBB3E7644803F017
:1057C0009DF9226CF0EE692AB0EE482AF0EE081A34
:1057D000B0EE491AF0EE680A0021B0EE480A5C48C3
:1057E000904700E05DE0384603F088F9D4F88C205B
:1057F000F0EE692AB0EE482AF0EE081AB0EE491A27
:10580000F0EE680A0021B0EE480A38469047284674
:1058100003F074F9F0EE692AB0EE482AF0EE081AA7
:10582000B0EE491AF0EE680A002102E0C0E0DEE0C6
:1058300012E1D4F8D820B0EE480A28469047304606
:1058400003F05CF9F0EE692AB0EE482AF0EE081A8F
:10585000B0EE491AF0EE680A0021B0EE480A304670
:10586000D4F8242138E7042606EB460000EB0610A6
:1058700004EB8005284603F041F92A6C2846F0EE37
:10588000692AB0EE4A2AF0EE081AB0EE491AF0EE94
:10589000680A0021B2EE040A9047761C082EE3DB6A
:1058A00040E70425A0464E4605EB450000EB0517F2
:1058B00008EB8704204603F021F9226C2046F0EE25
:1058C000692AB0EE482AF0EE081AB0EE491AF0EE56
:1058D000680A0021B2EE040A904706EB87000446EE
:1058E00003F00CF9226C2046F0EE482AB0EE482A6C
:1058F000F7EE001AB0EE491AF0EE680A0021B2EE97
:10590000040A90476D1C082DCEDB0BE7DFED16AACD
:105910000024804604EB440000EB041705EB8706E7
:10592000304603F0EBF83046F0EE692AB0EE4A2A32
:10593000F0EE081A1AE00000713D8A3E00409C45D6
:1059400000FC7F46CDCC4C3D10180020000000002C
:1059500050130020B0150020D01C00200060EA4643
:105960000000FA440000B44300007A44326CB0EE08
:105970006A1AF0EE680A0021B0EE480A904708EB78
:105980008706304603F0BAF8326C3046F2EE0E2A43
:10599000B0EE482AF1EE041AB0EE491AF0EE680AA9
:1059A0000021B0EE480A9047641C042CB2DBB9E633
:1059B0005FF0040404EB440000EB041005EB8006E8
:1059C000304603F09BF8326C3046F0EE692AB0EEB8
:1059D0004A2AF0EE081AB0EE491AF0EE680A0021E1
:1059E000B0EE480A9047641C082CE3DB9AE60424D6
:1059F0004FEA000804EB440000EB041705EB8706B0
:105A0000304603F07BF8326C3046F0EE692AB0EE97
:105A10004A2AF0EE081AB0EE491AF0EE680A0021A0
:105A2000B2EE040A904708EB8706304603F066F8AA
:105A3000B0EE482A326C3046F0EE422AF2EE041AFA
:105A4000B0EE491AF0EE680A0021B2EE040A90475F
:105A5000641C082CCEDB65E69FED109A042600BF7F
:105A600006EB460000EB061004EB8005284603F029
:105A700045F8B0EE482AF0EE680A2A6C2846F0EEA7
:105A8000422AF0EE491AB0EE601A0021B2EE040A82
:105A90009047761C072EE3DB44E600000000FA4343
:105AA00030B5144B1C68656945F0400565611B689D
:105AB000DC6844F01004DC600F4B1C68256825F09E
:105AC000010525601C682568ED07F7D11D680B4CA2
:105AD000AC601C68E0601868016118684260186872
